:020000042000DA
:1000000000980020B5000020BD0000202D01002038
:1000100000000000000000000000000000000000E0
:10002000000000000000000000000000C1000020EF
:100030000000000000000000C3000020C5000020F8
:10004000C7000020C7000020C7000020C700002014
:10005000C7000020C7000020C7000020C700002004
:10006000C7000020C7000020C7000020C7000020F4
:10007000C7000020B70D0020C7000020C7000020E7
:10008000C7000020C7000020C7000020290500206D
:1000900033050020550500205F050020690500207C
:1000A0000348854601F022FB004800477B100020F2
:1000B000009800200448804704480047FEE7FEE718
:1000C000FEE7FEE7FEE7FEE7D1000020A1000020EA
:1000D000062014490880082001218140124A11603D
:1000E00000BF05200007408980210840002817D163
:1000F00000BF05200007808A802108400028F8D032
:1001000005200007408980088000052109074881F3
:1001100000BF052000074089802108400028F8D052
:10012000704700000034005080E100E000BFFEE7AF
:10013000014600290AD0481E4840C003010C002295
:1001400001E04910521C0029FBD100E0102290B2BE
:1001500070477047F0B5032800D104204601F74FDF
:10016000F5194E00AF1DF41916461E432680F0BD4A
:1001700030B5032800D104204401F04D63191A1D45
:1001800001248C40148030BD30B5032800D10420F8
:100190004401EA4D63199A1C01248C40148030BD3F
:1001A000FFB504460D461646099F002F04D0294688
:1001B0002046FFF7E9FF03E029462046FFF7D8FF76
:1001C000324629462046039BFFF7C4FFFFBDF8B522
:1001D0000C461546002801D1002600E0461E009678
:1001E000009E7600D54F7037F119012802D12646BE
:1001F000083600E02646F2B200230B88012696401E
:100200001F46B7433B462E46964033430B80F8BD0E
:1002100010B50246032A00D104225001C74C03192D
:10022000188801248C402040002801D0012010BDF6
:100230000020FCE7F8B505460E4614461F46C0A050
:100240000068009021461339FF2201328A4090B2A3
:10025000FFF76EFF01460798002801DD012000E04E
:1002600000208840B74989892246133AFF23013389
:10027000934099430843B34988813F20FFF758FFD3
:10028000014607988840AF4989898909890108434F
:10029000AC49888121461339FF2201328A4090B24D
:1002A000FFF746FF014606988840A649098A22467C
:1002B000133AFF230133934099430843A14908822D
:1002C000114601228A4090B2FFF732FF01463846BC
:1002D00088409C49098A2246133A01239340994356
:1002E0000843984908823F20FFF722FF01466846ED
:1002F000405D80198840214613394900914A891888
:10030000098889098901084381B2204613384000D1
:10031000801801800221204600F02BF900BFE10681
:10032000C90E012088408849086000BFF8BD014619
:100330008448008A0A46133A012393401840012357
:100340009340DA07D20F002A01D0002293E00B4637
:10035000133B01229A4002231A40002A01D00122B5
:1003600089E00B46133B01229A4004231A40002ADD
:1003700001D002227FE00B46133B01229A40082362
:100380001A40002A01D0032275E00B46133B0122DC
:100390009A4010231A40002A01D004226BE00B4639
:1003A000133B01229A4020231A40002A01D0052243
:1003B00061E00B46133B01229A4040231A40002A79
:1003C00001D0062257E00B46133B01229A408023BE
:1003D0001A40002A01D007224DE00B46133B0122B0
:1003E0009A40FF2301331A40002A01D0082242E03C
:1003F0000B46133B01229A4001235B021A40002A5C
:1004000001D0092237E00B46133B01229A40012319
:100410009B021A40002A01D00A222CE00B46133B13
:1004200001229A400123DB021A40002A01D00B224C
:1004300021E00B46133B01229A4001231B031A4083
:10044000002A01D00C2216E00B46133B01229A40F1
:1004500001235B031A40002A01D00D220BE00B465A
:10046000133B01229A4001239B031A40002A01D02A
:100470000E2200E00F221041C0B2704770B5044652
:100480000D462146133901228A4090B2FFF750FEF3
:100490000146284688402B49098A2246133A0123FF
:1004A0009340994308432749088270BD10B504461C
:1004B0002146133901228A4090B2FFF739FE0146E6
:1004C000012088401F49C9892246133A01239340DD
:1004D000994308431B49C88110BD172806DC13281F
:1004E00004DB0246133A9200184B9950704770B5DE
:1004F0000446172C17DC132C15DB2046FFF7D6FF1C
:1005000020461338800011490D58002D01D0A8470E
:1005100008E000BFE106C90E012088400C490860D0
:1005200000BF00BF00BF70BD10B51320FFF7DFFF95
:1005300010BD10B51420FFF7DAFF10BD00300050D9
:1005400001090F190014005000E100E08C17002091
:1005500080E200E010B51520FFF7C9FF10BD10B50F
:100560001620FFF7C4FF10BD10B51720FFF7BFFF1F
:1005700010BD10B5002819DA194A03071B0F083BF4
:100580009B089B00D2588307DC0EFF23A3409A43AD
:100590008B071B0E8407E40EA3401A43104B04077D
:1005A000240F083CA408A4001A5118E00D4A0323A4
:1005B0001B02D21883089B00D2588307DC0EFF234E
:1005C000A3409A438B071B0E8407E40EA3401A43F3
:1005D000044B032424021B198408A4001A5110BDE3
:1005E0001CED00E000E100E070B50446D048844214
:1005F00001DD642538E0CE4884420FDC6320000131
:1006000084420BDD0146611A0804792100F0F0FDF7
:100610004821484300141C30C5B225E06320000186
:1006200084420FDC5520000184420BDD0146611A33
:100630000804E02100F0DCFD182148430014001DEF
:10064000C5B211E05520000184420CDC47200001B6
:10065000844208DD0146611A0804E02100F0C8FD6B
:100660008002050E00E00025284670BD70B50446E6
:10067000B04884420ADB0146611A642251430846AD
:100680004721C90000F0B4FDC5B200E000252846AE
:1006900070BD70B50446A848408901214902084050
:1006A000401200280ED0FF20B130844208DB211A0E
:1006B000642251430846910000F09AFDC5B211E052
:1006C00000250FE05520000184420ADB0146611A33
:1006D000642251430846FF21613100F089FDC5B213
:1006E00000E00025284670BDF1B58CB00C9800F0F4
:1006F000B7FE019000F002FF0446904A904B00F0D4
:10070000CFFD064600228F4B00F032FE00228E4BBA
:100710000391029000F02CFE00228C4B0591049076
:1007200000F0BEFD00228A4B0791069000F0B8FD54
:100730000991089000F0C4FEC0B20A900A980DB06A
:10074000F0BD0AE000BF00BF00BF00BF00BF00BF98
:1007500000BF00BF00BF00BF00BF0146401E002910
:10076000F0D17047F0B58DB0054600F09AF9032D31
:1007700011D17148408901214902084040120028E6
:1007800004D0012000F05CF984B219E0002000F0F0
:1007900057F984B214E0042D0ED10022290248003A
:1007A00000F002F91420FFF7CCFF012000F00FF950
:1007B00000F01CF984B203E0002000F041F984B29B
:1007C000204600F068F8044662A000F08DFB204649
:1007D00000F0E6FB68A000F087FB5EA000F084FB61
:1007E000204600F045FE554A554B0591049000F017
:1007F00057FD0022534B0791069000F0B9FD099177
:10080000089000F08FFE07465C4900F00CFD0A904E
:1008100000F03CFE0B9000F0C3FB59A000F064FB1D
:10082000204600F01DFE074600F068FE434A444B98
:100830000191009000F034FD0022424B03910290A0
:1008400000F096FD0022404B0591049000F090FDD1
:1008500000223E4B0791069000F022FD00223C4B07
:100860000991089000F01CFD0B910A9000F028FE01
:10087000C6B244A000F038FB6421714308462A2127
:1008800000F0B6FC074600F08BFB43A000F02CFB09
:1008900030460DB0F0BD30B501460020002806D02E
:1008A000012806D0022808D003283FD11EE00846C0
:1008B00030BD0846394A1040FAE708460422384B52
:1008C0001B68002B03D10301354C236008E0344B37
:1008D0001B681B09324C2468E31A1B18304C236038
:1008E0002F4B1B681B031B0C1846E1E7084603232C
:1008F00020242C4D2D682A1A002A01DB154600E021
:100900005542202D03DDC200264D2A6008E0254A0D
:100910001268D208234D2D68AA1A1218214D2A6098
:10092000204A12685203120C1046C1E70846BFE77E
:10093000A906000071040000200000503333333357
:100940003333F33F00F88F400080544000E077409D
:10095000000024400D43757272656E7420626174EC
:10096000746572792066696C745F4144435F73619A
:100970006D706C653A200000090000000000C8425C
:10098000760900000D43757272656E7420626174A1
:1009900074657279203A200025090000F0FF0000FC
:1009A000A0170020A417002010B501239B030343C8
:1009B0000B43594C238001239B030343012423430E
:1009C0000B43554C238009231343638010BD5249C8
:1009D00009880F22920191430207920D11434E4A5A
:1009E0001180704700204C49088070474B494A48A5
:1009F000008802229043801C474A108000BF0846AE
:100A0000491E002805D044480088022210400028D2
:100A1000F5D10020404A10811046408970470AE015
:100A200000BF00BF00BF00BF00BF00BF00BF00BFCE
:100A300000BF00BF00BF0146401E0029F0D1704733
:100A400070B504460022012189024800FFF7ACFF7F
:100A50001420FFF7E4FF002C03D00920FFF7B7FFB5
:100A600002E00120FFF7B3FFFFF7C0FF05460120BA
:100A7000FFF7D5FF0022012189024800FFF794FF0C
:100A8000002C03D00920FFF7A2FF02E00120FFF7AE
:100A90009EFFFFF7ABFF06467519FFF7A3FF284639
:100AA00070BDF8B51E481C4908801420FFF7B7FF39
:100AB0000120400218498880C8800846008801212A
:100AC000090388434018144908800846008801211A
:100AD0008902884310490880FFF788FF0346DD1F1D
:100AE000FF3DFA3D0C4800880121890288434018E7
:100AF00009490880FFF77AFF0446E61FFF3EFA3EE9
:100B00006800012149020F1A7000081A009002497A
:100B10008F800098C880F8BD00150050A0860100A5
:100B20000148000010B5002428E000BFD149086842
:100B3000C1B2D14800690170CF48C068401ECE499B
:100B4000C86008460069401C08610846C068002863
:100B500014D10021C84801610020C64949684908EC
:100B600049000143C34A516000BFC3484469002C97
:100B700003D0002141610020A04706E000BFBD492D
:100B80004869C107C90F0029CFD100BF10BD10B5FA
:100B900000240020B849C8600021B7480161B54869
:100BA000808840084000B3498880B3484469002CDD
:100BB00003D0002141610120A04710BD10B50024E1
:100BC00026E0AD4949680878AA49086000BFAA48EC
:100BD0000068401EA849086008464068401C4860FC
:100BE00008460068002813D1486000BFA149496841
:100BF00002229143420011439E4A516000BF9E4829
:100C00008468002C03D000209B498860A04709E03D
:100C100000BF98496031898B02221140481000BF03
:100C20000028CED100BF10BD00BF92494869C1075E
:100C3000C90F002901D1012070470020FCE770B5E1
:100C400004460D468B4880898021884389498881E4
:100C500007200881002088800846808980218843F9
:100C60008030844988812004000E8880E0B20880AA
:100C7000084685818089802188437E4988810D20AE
:100C8000012181407D4A116000BF032100F0B8F8C6
:100C90000D2001218140794A803A116000BF00BFD8
:100CA00001218140764A116000BF00207249087618
:100CB00000217148016100206F49C86048600860E8
:100CC00070BD22206B490861704738B5012400BF10
:100CD00000BF68494869402101408909002907D0BF
:100CE00000BF64494869202101404909002901D118
:100CF000002414E000205F490861009002E00098A1
:100D0000401C0090FF215F3100988842F7D3FFF725
:100D10008BFF002802D1FFF7D4FF002400BF00BFE3
:100D2000204638BD30B50120002102460B46C401E3
:100D30008D012C4355012C435D002C434D4D2C61FE
:100D400000BF00BF00BF4B4948692021014049094D
:100D50000029F7D000BF474948694021014089096F
:100D60000029EFD030BD30B5434BD96018615A61CE
:100D70000123404C64689C431C433E4D6C6000BFA3
:100D800030BD70B504460D4616463B4805604460CC
:100D90008660FFF713FF3848406800280AD001201A
:100DA000344949680222914342001143314A51605B
:100DB00000BF00BF70BD10B52E4880680407240F27
:100DC000012C1CD0022C15D0042C10D00C2C14D1CA
:100DD0002948007E012809D100BF264948698021A1
:100DE0000140C909002901D0FFF7D1FE06E0FFF755
:100DF00099FE03E0FFF7E2FE00E000BF00BF10BD78
:100E000010B5002819DA1F4A03071B0F083B9B087F
:100E10009B00D2588307DC0EFF23A3409A438B0725
:100E20001B0E8407E40EA3401A43164B0407240F3D
:100E3000083CA408A4001A511AE0104A803A03237F
:100E40001B02D21883089B00D2588307DC0EFF23B5
:100E5000A3409A438B071B0E8407E40EA3401A435A
:100E6000064B803B032424021B198408A4001A515A
:100E700010BD000000110050A817002080E100E024
:100E800080E200E01CED00E038B50446F020204090
:100E900001110091684600780A2801DA302100E04B
:100EA0003721684600780818C1B20091002201215C
:100EB0006846FFF766FFFFF735FF2107090F00912E
:100EC000684600780A2801DA302100E037216846B8
:100ED00000780818C1B20091002201216846FFF78E
:100EE00050FFFFF71FFF38BD70B50446204600F0E5
:100EF00093F90546002229462046FFF742FFFFF7F7
:100F000011FF70BD10B504462104080EFFF7BCFFA9
:100F1000E0B2FFF7B9FF10BD10B50446200EFFF791
:100F2000B3FF2102080EFFF7AFFF2104080EFFF701
:100F3000ABFFE0B2FFF7A8FF10BDF8B504460025EF
:100F4000204600F069F9461E05E0675DA05D60552A
:100F5000A7556D1C761EB542F7DBF8BDF8B5064601
:100F60000C46371E00DA7642002500BF0A213046C3
:100F700000F03EF9303128466D1C21540A213046DC
:100F800000F036F9061EF1DC002F03DA2D22284688
:100F90006D1C2254002060552046FFF7CEFFF8BD9F
:100FA00038B5044669462046FFF7D8FF6846FFF784
:100FB0009BFF38BD002109E0002201E0531C9AB2DA
:100FC0007D23DB009A42F9DB4B1C99B28142F3DBB3
:100FD000704770B5044600250CE0002604E00120AF
:100FE000FFF7E8FF701C86B27D20C0008642F6DB6A
:100FF000681C85B2A542F0DB70BD10B53FA0FFF7BD
:1010000073FF40A0FFF770FF44A0FFF76DFF3DA006
:10101000FFF76AFF47A0FFF767FF4DA0FFF764FFE8
:101020000420FFF79FFB0446FFF7BAFF50A0FFF72D
:101030005BFF51A0FFF758FF10BD002005210907F5
:10104000088008205049088005200007408A202198
:10105000884320300521090748820846408A8021BC
:10106000884380300521090748820846008A02210A
:101070008843052109070882704708B5FFF7DDFF9F
:1010800000F086F80020034603221202032100909C
:101090000120FFF785F800200346032212020721F2
:1010A00000900220FFF77CF803210120FFF76CF885
:1010B00007210220FFF768F800200F2302460121D4
:1010C0000090FFF76DF8FFF798FF0BE00220FFF7A5
:1010D00080FF0420FFF746FB0446FFF761FF2BA0CB
:1010E000FFF702FFF2E75022424391B200BF0A46E7
:1010F0004B1E99B2002AFAD1704700000A0D0A0D62
:10110000000000002A2A2A2A2A2A2A2A2A2A2A2AE7
:101110002A2A2A2A2A2A2A0A0D0000002A203356BF
:1011200020424154544552592054455354202A0AD0
:101130000D0000000A0D42617474657279207479A3
:1011400070653A20B1B6C1BF313338306D4100000F
:101150000A0D43757272656E7420626174746572F3
:1011600079206C6576656C202825293A20000000DE
:1011700025206C65667400000A0D456E64206F665C
:1011800020746573740A0D0000330050562000006F
:1011900008B505200007008A0221884305210907B8
:1011A000088200BF05200007808A08210840002827
:1011B000F8D0002004230322120203210090022011
:1011C000FEF7EEFF002003230246042100900220D8
:1011D000FEF7E6FF05200007808840218843403065
:1011E00005210907888003210920FFF728FD08BD94
:1011F00070B500242546002801DA01244042002968
:1012000001DA0125494200F0A9F9AC4200D0404280
:10121000002C00D0494270BD421C0178401C0029BE
:10122000FBD1801A7047024670B54A40D30FDB07E6
:1012300040002DD04A002AD0010E140E00021202E6
:101240000919400A520A8418E50104465443000A69
:10125000120A2E045043A4194219200CC543AA189F
:10126000120C0125AD03521C521912047F392404BB
:1012700000D0521C104301D44000491EC2B20C06DB
:10128000C0092018401C4008802A02D003E000203A
:1012900070BD40084000002900DA0020184370BDEE
:1012A000F0B51FB488B00B990998002448400999FB
:1012B000C00F490049080991C0070B9900904900E7
:1012C00049080B9109990898A64608431CD00B9928
:1012D0000A98084318D0099801244000420D48009C
:1012E000410D099824050003000B204309900B9839
:1012F0000003000B20430B9050181C49401800229B
:1013000001901446104605E0002001460DB0F0BDE6
:10131000032801DA034600E003239C46C11A0AAE03
:101320000AE05F0008ADED5B4F00F75B7D430027EF
:10133000AA187C41491C5B1E6145F2DD410004ABEB
:101340005A522104120C0A43240C401C0828DFDBEB
:10135000019802900099704601910090059B049AB3
:101360000799069800F06FF9D0E700000DFCFFFF29
:10137000F0B50C465C4085B0E40FE40703944C00E4
:101380000026640859009446490802460296224302
:1013900021D062460A431ED06200570D4A000E0358
:1013A0002303550D012402462C492405781B1B0BF1
:1013B000360B401823432643614600901C46501AC2
:1013C000B44103D30098401C009002E092180098AA
:1013D0005B41002803DA0020014605B0F0BD002083
:1013E000012109050746864611E064461D46141B87
:1013F000B54106D36546521BB341744607430C43BF
:10140000A646CD0740084908284392185B41054687
:101410000D43EAD11046184313D060461946504098
:101420007140084306D06046101AB34106D201222B
:10143000002306E000220123DB0702E00122D24361
:101440005310009874460105381C6141029C039DAD
:101450000019694100F0EAF8BFE70000FD03000051
:1014600010B500229623114600F0A7F810BD000029
:101470000EB505490291002100910A460B460191E3
:1014800000F0E1F803B000BD33040000C20F4100DA
:1014900040020123400ADB05D207090EC0187F294C
:1014A00001DA00207047962903DC9623591AC840B8
:1014B00001E096398840002AF4D04042704700008D
:1014C0004A0009030123090B1B051943094B10B5F9
:1014D000520D9A4201DA002010BD064B34339A4275
:1014E00003DC9A1A00F050F810BD034951188840E7
:1014F00010BD0000FF030000CDFBFFFFC20FD207AD
:10150000400040080BD0C10D0723DB01C918400281
:101510000905400A1143C2084007114370470020E3
:1015200001467047CB0FDB07490010B5490802465A
:101530000A4307D00A0D07240903E401090B121B13
:10154000002A01DC002010BDC900440F0C43C1007B
:10155000E018D205801800F028F810BD30B50B4611
:10156000014600202022012409E00D46D5409D427D
:1015700005D31D469540491B254695404019154603
:10158000521E002DF1DC30BD10B5202A04DB0846C8
:10159000203AD040002110BD0B46D340D04020243B
:1015A000A21A91400843194610BD002904DA401CD4
:1015B000490001D140084000704770B40024050C78
:1015C00005D11024000402D1002921D01124050ED8
:1015D00001D100020834050F01D10001241D850F3F
:1015E00001D18000A41C002801DB4000641C0029FC
:1015F00008D020252E1B0D46F540A14000D001212A
:101600002943084301061B1B000ADB1D02D50020ED
:1016100070BC7047DB05181880180029F8DA401CE8
:101620004900F5D170BC40084000704710B5002B50
:1016300008DA0024401C614192185B411A4301D131
:101640004008400010BDF0B51FB482B005460C0044
:1016500003D0084600F06CF802E000F069F8203092
:10166000024600902146284600F052F8049B059A55
:1016700004460F4618431143084314D0184610433C
:101680001BD0009840210A1A18460599FFF77CFFE5
:1016900005460E46009A0599049800F039F808436B
:1016A00005D0012004E02046394607B0F0BD0020F7
:1016B000C11705430E432C43374300990E98630529
:1016C000401A7905E40A00220C43FD0A0A3002D5CB
:1016D00000200146E9E70105101969410C9C0D9DA8
:1016E00000196941FFF7A2FFDFE70000064C012562
:1016F000064E05E0E36807CC2B430C3C98471034BA
:10170000B442F7D3FEF7D0FC7C1700208C170020E2
:1017100010B5202A04DB0146203A9140002010BD7C
:10172000914020239C1A0346E3401943904010BD8A
:101730002021020C01D010211046020A01D01046CF
:101740000839020901D01046091F820801D010464D
:10175000891E420801D0881E7047081A704702E0AF
:1017600008C8121F08C1002AFAD17047704700202C
:1017700001E001C1121F002AFBD170478C17002025
:0C1780008C170020380000006E170020BD
:04000005200000A136
:00000001FF
