:020000042000DA
:1000000000980020A9040020B1040020C9040020A9
:1000100000000000000000000000000000000000E0
:10002000000000000000000000000000E1040020CB
:100030000000000000000000F9040020FB04002084
:100040000B380020053103000D31030091380020EA
:100050009D3800208D310300F3380020FB3800204C
:10006000EB240020FD04002013390020AD310300F3
:1000700041240020FD0400204B1B02004B1B02000A
:100080004B1B0200FD0400204B1B0200D522002068
:10009000D9220020F5220020F9220020FD22002094
:020000042000DA
:100160003200000023080020F3200020293A00205C
:10017000000000000000000063800200BD8002005B
:100180003F1F0020FB800200198102003581020020
:100190005D810200DD370020FF0500200F1F0020D9
:1001A000271F002000000000000000003F000000AA
:1001B000F48B002000040000740B080048010000CC
:1001C0006807080000040000C80C080020050000B3
:1001D000000000002000000048000000580000005F
:1001E0006800000004010000160100002801000062
:1001F0002E010000202A00008E2E000001000000C9
:10020000881300007D210020E9600200FD930200B8
:100210008F2D002019280300A5740200DD33002073
:1002200003000000D5200200393A0020040000003D
:10023000D74902000F490200831D020063910200AA
:10024000B7910200BF910200078202007182020092
:10025000206A0020AD8302009384020041850200E1
:1002600015860200378602005F860200758602004E
:10027000F9870200258902005D8A0200D38C020002
:10028000098D02000F900200438D0200278E0200AC
:10029000F98E0200478F0200811E0020D58F0200D8
:1002A00049510200775102002F5202001000000055
:1002B00020030000803E000000000000000000005D
:020000042000DA
:1002C000504600030003983A6400F401B80B000C98
:1002D000B80B120030003000CD009A01120024004B
:1002E00030006400B0001800280012001200D0078F
:1002F0000000FFFF00000000000000000000000000
:100300001F000002444131343538302D30310000B7
:1003100000000000000000000000000000000000DD
:0403200000000000D9
:020000042000DA
:10034000FFFF010000C201000000000000000000EB
:100350000000F4010100011B0A051AFFD20002157A
:10036000585CDE931B0142CC9A1325009BEDC65EC0
:1003700000000000C5000000000009FF00605257A7
:100380002D424C450000000000000000000000006D
:10039000000000000000000000004D31305F31001F
:1003A000000000000000000000000000000000004D
:1003B000000000000000000000000000000000003D
:1003C000000000000000000000000000000000002D
:1003D0000000000000000000000000000000D00746
:0403E000064064323D
:020000042000DA
:100440000348854605F04CFD00480047C7200200E0
:100450000098002010B5114906200880FF2010499F
:10046000013008600F4988683E2290432E30886032
:100470000021052000070180028A0F231B021A4376
:1004800002820122D204032308461B038418216040
:10049000001D9842FADB62B610BD00000034005027
:1004A00080E100E0003300501548804715480047C0
:1004B00004207146084203D0EFF30980124908472F
:1004C000EFF308801049084704207146084203D022
:1004D000EFF309800D490847EFF308800B490847FF
:1004E00004207146084203D0EFF309800849084709
:1004F000EFF3088006490847FEE7FEE7FEE7000045
:100500005504002041040020D915002015050020C5
:100510008705002005221207518A80231943518242
:10052000114903680B6043684B6083688B60C36844
:10053000CB6003690B6143694B6183698B61C0695F
:10054000C8610A48836A0B62C36A4B62036B8B62A1
:10055000C36BCB62436B0B63806B4863908A8006EE
:1005600001D500BE7047FEE70018080000ED00E06E
:1005700002890889FF49101A80B2884201D90120F6
:1005800070470020704781692039897F082904D28B
:10059000F94A8900515881617047FEE7F848F749E8
:1005A0000161F8494161F8498161F849C161F8493F
:1005B0000162F8494162F8498162F849C162F8492B
:1005C0000163F8494163F8498163F849C163F64919
:1005D000EB485C3140300160F5494160F54981608C
:1005E000F549C1600120F549C0060860F449CA69AF
:1005F0001202120ACA61F14980390860704710B5C9
:10060000F0490020086001F027FC01208007016B01
:1006100049004908016310BD10B50221084606F0E3
:1006200073F800220123E84900280BD0CA70088B18
:10063000E64CA0420DD2088B00280AD0C8780028CA
:1006400005D006E0088B401C0883CB70EFE78B7267
:100650000A83088BDE4CA04201D9CB720A83C87B87
:10066000052801D98B73CA7310BDF8B5FFF7D4FF05
:10067000D54DD84EA87A00240127012833D1AC7279
:10068000707800282FD1022030710146012006F039
:10069000ABF8D1480470D1A001F066FE32221146B9
:1006A000D54803F089FE0721022006F09DF81420AA
:1006B00000F0FAFF01F076FA0721022006F0B6F802
:1006C000CE48D1490480CE480780CE48048003201C
:1006D000C870777028462C73203004804480022133
:1006E000012006F0A3F8E87A01283DD1EC72707879
:1006F000012861D0C548AC7404800221012006F0B5
:1007000073F8B548322204701146BB4803F054FE1A
:100710000721022006F068F8142000F0C5FF01F060
:1007200041FA1920400100F0BFFFFF20913000F096
:10073000BBFF01F037FA0721022006F077F802200C
:100740003071AE480480AF480480B1480480BB20BB
:10075000B07177702C732F729B4802212030048077
:100760004480012006F062F8A87B012823D1AC73F5
:100770000721022006F038F8142000F095FF01F060
:1007800011FA23242401204600F08EFF01F00AFA1A
:10079000204600F089FF01F005FA0721022006F04B
:1007A00045F801F050FA2F74204600F07DFF022139
:1007B000012006F019F8F8BD96A001F0D5FD022140
:1007C000012006F011F80721022006F00DF8142090
:1007D00000F06AFF01F0E6F94B20000100F064FF31
:1007E00001F0E0F90721022006F020F8E87B401C28
:1007F000E8738648048086480480AC74BB20B071DE
:10080000A9E710B5704C85B0032100206B462E344B
:10081000625C5A54491C5040C9B21329F8D905B03A
:1008200010BD94B000200F900E90884801240470F1
:10083000874908200F26088005F064FB06F03CF885
:1008400001F063F90021022005F0CEFF5E4804703C
:100850000078012802D1032105F0C6FF07210220FC
:1008600005F0C2FF02F049F905460C4679A001F0F7
:100870007BFD270E384601F081FD200C0B90C0B2A5
:1008800001F07CFD200A0A90C0B201F077FDE0B2D1
:1008900001F074FD2102280E08430190C0B201F05E
:1008A0006DFD2104280C08430C90C0B201F066FDD8
:1008B0002106280A08431090C0B201F05FFDE8B29B
:1008C00001F05CFD684607700B981397C1B268464B
:1008D00041700A980B91C1B2684681700D91E1B2E6
:1008E000C17001980A91C1B2684601710C980991D2
:1008F000C1B26846417110980C91C1B268468171CD
:100900001091E9B2C17111910F21062209035948D2
:1009100002F059F8002503222B46120229462846E8
:10092000009505F095FD54490868002801D0681E1F
:1009300000E00120514A08601368C1175468184349
:100940002143106051600A2000F0AEFE01F02AF948
:100950000C2000F0A9FE01F025F90C2000F0A4FE07
:1009600001F020F90C2000F09FFE01F01BF90C2093
:1009700086E0000030750000006A00209427030024
:100980000084004062B600DF28A30200704701DF48
:100990001CCA0200F8BD02DF40CB0200F5E703DF0E
:1009A00084D4020004DF89B0BC330200F8BD05DF47
:1009B000F8BD06DFEC0C030070BD07DF80E100E04E
:1009C00000ED00E08C03080020900020B80B000030
:1009D000AC0D0000D86E0020218000200A20647534
:1009E000616E20616E20204D4F544F525F5245532F
:1009F000455420202000000005C8000086910020FA
:100A00008C91002088910020989100208A910020EC
:100A1000749000200A206368616E6720616E2C4D1F
:100A20006F746F724F6E203D3D20312C6469616E92
:100A3000206A69207368692066616E67207A68752C
:100A4000616E672074616920200000002280002010
:100A5000003300500A53504920666C61736820557A
:100A60006E69717565204944204E756D626572200E
:100A700069732000D8030020809000207890002027
:100A800000F012FE01F08EF80C2000F00DFE01F0D7
:100A900089F80C2000F008FE01F084F801F0C6F897
:100AA0000021022005F0C2FE0721022005F0BEFE53
:100AB000F94902200871F94801780170F848017875
:100AC0000170012005F024FAFF2401340D20214695
:100AD000800105F023FA02F095FD01F073FA01F0B0
:100AE0000BF9042000F0A4FC072000F0A1FC0A2070
:100AF00000F09EFC062000F09BFC0B2000F098FC10
:100B0000012000F095FC022000F092FC002000F093
:100B10008FFCE448006805F007FAA005016821434E
:100B2000016000F0D1FCE0480068AA2805D114203B
:100B300001F050F9142001F05BF903F009FCFFF714
:100B40005EFDA22105200007C182D8484188E0222D
:100B50009143A0314180012005F0ECF905F0F0F956
:100B6000022803D005F0ECF901280BD1D049082068
:100B7000088005200007818A8906FCD4418A8022EA
:100B80009143418201223221CA4803F015FC7D20A5
:100B9000C00000F089FD05242407208900061FD528
:100BA000A000006B00041BD405F0D0F9C00717D1DA
:100BB000042005F0D1F9074605F0D4F9002F0FD035
:100BC000B94800950068AA2802D1142001F010F954
:100BD0000421684605F0CCF9002801D001F05EF947
:100BE00072B602F037FD69460877042806D002285D
:100BF0000AD0032808D001286BD06BE0AE480078FB
:100C000001280DD003200877208A0427384320824A
:100C1000AA48C0690128087F17D9032802D010E02C
:100C20000220F0E705F0AAF900280AD005F0ACF997
:100C3000002806D0032005F0ADF9002801D00220DD
:100C40000AE002206946087708E00328F9D105F098
:100C5000A1F90028F5D00120994908709948016947
:100C600039430161608A202188436082208A022101
:100C7000084320826846007F0228608A22D03843D9
:100C800060827F22208892018021084320800020FA
:100C9000401CC0B20A28FBD3638A1020034363823E
:100CA0008948521E42612088884320807F484288BC
:100CB000FF2101318A43428030BF82480169B94334
:100CC000016107E038436082608A102188436082B6
:100CD000ECE730BF62B6704F3878002809D10321A5
:100CE000012005F0A3FD0221012005F09FFD7748BA
:100CF0000570FFF7BAFC00F0B3FF0521022005F0F4
:100D000003FD002803D071490120887038706F4CB2
:100D1000A07801280AD16E480088012803D06D48C8
:100D2000008807281ED2A5706B4805806948008896
:100D3000072817D2A07C002814D1A078012811D050
:100D40006549088802463C3A142A07D8CC21B97173
:100D5000C00711D161490320C8700DE0502801D9A6
:100D60000D803D70B879BB2806D15A480088032809
:100D700002D80120607000E06570A078012802D1DF
:100D80007878012806D0102E03D9554800880D2800
:100D90005DD0BDE00120B87051480580A07CEE28F0
:100DA0001AD14C480088062816D94E480E210088D2
:100DB00005F0F6F800290FD10721022005F014FDF7
:100DC000142000F071FC00F0EDFE0721022005F078
:100DD0002DFD4449012008804348142100880090DB
:100DE00005F0DEF8002910D1DD20A074AA20B8712A
:100DF000F8790F904B2100984901884200D93D7045
:100E0000607B002801D10120E071E07901281DD12B
:100E1000607B00281AD13549009888420CD20721FE
:100E2000022005F0E1FC142000F03EFC00F0BAFEC8
:100E30000721022005F0FAFC0621F87905F0B0F848
:100E400024490A8880180880AA207871CFE02148B8
:100E5000008806285CD90721022005F0C5FC142073
:100E600000F022FC00F09EFE4B20C00000F01CFCB5
:100E700000F098FE1920400100F016FCFF20913090
:100E800000F012FC00F08EFE4B20C00000F00CFCC5
:100E900000F088FE2CE00000D86E00200000080062
:100EA000202A0800049000202C8000202000005000
:100EB0000033005005C8000054020800E001002083
:100EC000C406080000ED00E00080004020900020F3
:100ED00072900020749000208A9100209891002048
:100EE00086910020849100208C91002056090000FA
:100EF000FBA001F039FA0721022005F097FC33200E
:100F0000A074AA207871FE480E210580FD4801805A
:100F1000FC480088B0426AD3FB480088062866D99E
:100F2000207B002803D1F9491820C870BD70B8781B
:100F3000002809D132221146F54803F03DFA01207C
:100F4000B8702073EE480580F2480188002902D16C
:100F5000142101804180EF4841880088421F91425E
:100F600005D0921F914202D0113881420CD1072145
:100F7000022005F039FC142000F096FB00F034FE4E
:100F80000721022005F052FCDD480088C10704D18A
:100F9000152802D2DD490320C870DE480188D948EF
:100FA0000088401A142105F001F8002902D0387990
:100FB000002812D0A07A01280FD0D4490320C8708D
:100FC0005520A074AA20B87100200F900120E07174
:100FD000D14805703879401E38717878002806D1DC
:100FE000CE48CF490088801B884200DD3D70CD4847
:100FF000018801297ED10580C348257400883C28DA
:1010000007D80221012005F0EFFB4B20C00000F0C3
:101010004BFB6078002801D1AA20B871B948BF49BC
:10102000058001200880C048C04905801120087053
:10103000B94805210570022005F066FB00280DD097
:10104000B1480088062801D9EE20A074B84801886C
:10105000FF20D730814203D2FF2005E0A574F5E7D9
:10106000B44804F09DFF80B20E99C0B2491CC9B2C9
:1010700002AA0E9150546946887301906079012844
:1010800000D1A0710E98052803D100200E900120F8
:101090006071607901280846497A807A36D009184B
:1010A0006846C27A007B101809186846407B081809
:1010B0000E9904F075FF0F906846417A807A0918FE
:1010C0006846C27A007B101809186846407B0918E8
:1010D0000198081AC117890F08188005000EF871C9
:1010E0000F99002925D0FF2923D80A46617A521A80
:1010F000052A00E062E003DA0F9A891A052910DB5D
:1011000001212171814A1821117112E009186846E4
:10111000C27A007B101809186846407B0818052120
:10112000C7E77A490A79052A03D2012222711822D7
:101130000A7101460B39BD2913D87349098806295C
:101140000FD904F039FF02460B4600207A4904F01B
:1011500091FD0022794B04F035FF04F01FFEC6B26A
:101160000CE00A2807D8002808D067490988062912
:1011700001D9B42602E0C82800D90726A570624824
:101180000188052901D201222271022907D2F978AA
:10119000012904D10580FD70257100200E90207971
:1011A000012807D125710F986072607B00280CD050
:1011B000552078710221012005F038FBA07C3328EE
:1011C00005D06078012802D008E0AA20F1E74C4859
:1011D0000188152902D1AA21797105804B48C07870
:1011E000022802D1607B002806D07879AA2805D091
:1011F000207A012802D0B7E0AA207871207C01284B
:101200006CD000F020FD1920400100F04DFA3D485F
:101210000088B04206D3002002A90D54401CC0B281
:101220000528FAD3384800883C2803D90221012038
:1012300005F0DAFA424AB868110A02704170B979C9
:101240008170E28AC270120A2F4902710A884271C3
:10125000120A827114223B49C2710A7802720F9AF3
:101260004272A27C8272139AC2720B9A02730D9A16
:1012700042730A9A8273099AC2730C9A0274109A82
:101280004274119A8274FFF7BCFAB968C8743C20A2
:1012900000F00AFA012060741C48062141712A48B6
:1012A0000078012810D129481A4A40890E32801D41
:1012B00080B2142104F08CFE244800214089801D56
:1012C00082B2224802F07AFBE08A2149401C80B2B7
:1012D000E082884201D90120E0823BE044E0000046
:1012E0000A20446F6E67205461692042616F204A72
:1012F000696E6720342062696269626962692000F0
:101300008891002086910020749000209891002000
:1013100004C8000040900020008000208C91002034
:1013200065090000729000208A910020E46E002080
:1013300070900020C0D4010000004E4000003E40EC
:101340001B030000CB91002020800020A2910020F0
:10135000FEFF0000E5710220607355207871257250
:101360000221012005F062FAE07C401CC0B2E0746A
:10137000322859D0207D002851D02575012001F058
:1013800033F901F03FF960832DA000F0EDFF608B91
:1013900001F034F8608B04F00FFE314F00223B4621
:1013A00004F05AFC00222F4B04F064FC00222E4B68
:1013B00004F008FE04F0F2FCC0B2A0832BA000F001
:1013C000D3FFA08B01F01AF832A000F0CDFF608BA4
:1013D00004F0F2FD00223B4604F03EFC00221346DE
:1013E00004F0FCFD03D8608B002800D0A5832A4AB6
:1013F000607D217F1154401CC1B26175104600F020
:10140000E5FBE083607D0A2800D3657523A000F02A
:10141000ABFFE08B00F0F2FF1EA000F0A5FF642000
:1014200000F04BF9FFF7B7FBE57401202075A4E746
:10143000C106C90E0120884021490860704700009C
:101440000D43757272656E74206261747465727991
:1014500020204144435F76616C75653A20000000AE
:101460000018834000006140000059400D43757230
:1014700072656E74206261747465727920207542A1
:10148000617452656D61696E50657263656E743228
:101490003A20000025200000449000200D43757282
:1014A00072656E74206261747465727920204144A3
:1014B000435F70657263656E746167653A20000012
:1014C00080E200E0704700003E480178002902D029
:1014D0008021417070473C49002008703B49C8702A
:1014E000704738480178002902D081214170704747
:1014F0003549012008703549C87070473148017876
:10150000002902D08221417070472F4902200870C3
:101510002E490120C87070472A488178002904D0DC
:10152000491E0906090E817017D142780021002A50
:1015300004D09207920F0270417004E00278002AF2
:1015400001D0521E02701206120E017005D0012A3F
:1015500002D0022A01D1D1E7C3E7704710B5194C78
:10156000A078401CA0702078002805D104F0E8FC89
:10157000421CFFF7A9FF227010BD12490120C8705C
:10158000704710490020C87070470E48C0787047F7
:101590000020EFF31081012282F310880522120748
:1015A0001289120605D40A48028901231A430281CE
:1015B0001846002900D0012181F3108870470548A2
:1015C000007870472380002054020800C6060800F7
:1015D000003300504280002005221207118A0423A4
:1015E00019431182118A0223194311821189402360
:1015F00019431181174B01211960174B08211980DC
:10160000518A802319435182144903680B6143684E
:101610004B6183688B61C368CB6103690B6243696B
:101620004B6283698B62C069C8620D48836A0B6331
:10163000C36A4B63036B8B63C36BCB63436B074919
:1016400040310B60806B4860908A800601D500BEF7
:101650007047FEE780E200E00033005040180800C9
:1016600000ED00E010B5012005F08CF9032005F035
:101670007DF900221146012000F008FF2A220121F5
:10168000002000F084FF142005F0A8F9002005F0E8
:10169000ABF900221146642000F017FF00F01AFF9A
:1016A00005F07CF910BD70475021484380B20146D7
:1016B000401E80B20029FAD1704700227D23DB0052
:1016C00006E00021491C89B29942FBD3521C92B218
:1016D0008242F6D3704770B5FA4900200A6BC043C6
:1016E000002A01D0034600E00123DA179C0B920484
:1016F0002243F54C0B6325689B0466682B433243F9
:10170000236062608A6D002A01D0024600E0012257
:101710008A6523689200656823602A436260CA6D07
:10172000002A01D0024600E00122CA652368D200E7
:10173000656823602A4362600A6E002A01D002466F
:1017400000E001220A6623681201656823602A43CB
:1017500062600A68002A01D0024600E001220A60A5
:101760002568D31766682A433343226063608A6919
:10177000002A01D0034600E00123DA179D0E9201F2
:101780002A438B6125689B0166682B4332432360A3
:101790006260CA68002A01D0034600E00123DA171C
:1017A0005D0FD2002A43CB602568DB0066682B43BF
:1017B0003243236062604A69002A01D0034600E098
:1017C0000123DA17DD0E52012A434B6125685B01C4
:1017D00066682B433243236062604A68002A01D066
:1017E000034600E001234B60DA17DB1825685241FD
:1017F00066682B433243236062608A68002A01D006
:10180000034600E00123DA179D0F92002A438B6004
:1018100025689B0066682B43324323606260CA6977
:10182000002A01D0034600E00123DA175D0ED20141
:101830002A43CB612568DB0166682B433243236072
:1018400062600A69002A01D0034600E00123DA172A
:101850001D0F12012A430B6125681B0166682B438B
:101860003243236062608A6A002A01D0034600E0A6
:101870000123DA171D0C12042A438B6225681B040E
:1018800066682B43324323606260CA6A002A01D033
:10189000034600E00123DA17DD0B52042A43CB6232
:1018A00025685B0466682B433243236062604A6BA1
:1018B000002A01D0034600E00123DA175D0BD204B1
:1018C0002A434B632568DB0466682B43324323605D
:1018D00062600A6D002A01D0024600E001220A651A
:1018E0002368656823602A4362604A6D002A01D03C
:1018F000024600E001224A652368520065682360C1
:101900002A4362604A6E002A01D0024600E00122AA
:101910004A6623685201656823602A4362608A6EC2
:10192000002A01D0024600E001228A662368920163
:10193000656823602A436260CA6E002A01D00246AD
:1019400000E00122CA662368D201656823602A4349
:1019500062600A6F002A01D0024600E001220A6795
:1019600023681202656823602A4362604A6F002A76
:1019700000D101204867216840026268216010435D
:10198000606070BDF8B5012503263602002332469B
:1019900002212846009504F05BFD00240221234625
:1019A00022460846009404F053FD002107233246E6
:1019B0000846009404F04CFD0623324619460020E8
:1019C000009404F045FD08233246032100200095D1
:1019D00004F03EFD0523002219461046009504F050
:1019E00037FD0223324603211846009404F030FDEF
:1019F0000123002204210220009404F029FD002389
:101A0000324604211846009504F022FD00220F23DF
:101A100001211046009404F01BFD00220F23022137
:101A20001046009404F014FD1723324607210020CD
:101A3000009504F00DFD0023324619460120009464
:101A400004F006FD0121002332460846009404F00C
:101A5000FFFC0023324603210120009404F0F8FC2F
:101A60000023324619460220009404F0F1FC0023C2
:101A70001A4601210220009404F0EAFC00231A46D1
:101A800005210220009404F0E3FC002332460621E5
:101A90000220009404F0DCFC0023324607210220DF
:101AA000009404F0D5FC0023324608210220009562
:101AB00004F0CEFC0023324609210220009504F0F8
:101AC000C7FCF8BD809000207890002038B57FA03A
:101AD00000687F4C009060896A46801D80B20321B7
:101AE00004F076FA60890021801D82B2204601F060
:101AF00065FF00210822084601F09EFF01223221E5
:101B0000744802F059FC38BD70473EB505242407DF
:101B1000208A022188432082A08A0007FCD5FEF794
:101B20003DFDFFF72FFF00F0B7FD00F0EFFBFFF7E3
:101B300099FD0520FFF7B8FD002201201146C002E3
:101B400000F044FD012000F04FFD142101200A4661
:101B50000191009001460023022004F0A3FC5E499D
:101B60000320487000200870009001900346024650
:101B700001460290584800F0CBFD00F098FE56490F
:101B8000091F4870401C04D1FF210131880200F078
:101B900055FE00F0AFFD00F0B4FD608A202108433F
:101BA00060823EBD10B500240621022004F01CFE18
:101BB0000520FFF779FD0621022004F037FE0520FD
:101BC000FFF772FD641CC82CEEDB10BD034610B598
:101BD0000020024602E09C5C2018521C8A42FADB7C
:101BE00004F0E4F9C0B210BD10B53C4C20782228B6
:101BF00005D0442803D0662801D0882801D1FFF7FA
:101C0000D1FF37488178002906D12178882904D06E
:101C1000052282701131217010BD64218170112064
:101C200020702D490120091F087010BD10B5082132
:101C3000022004F0FBFD2420FFF736FD08210220DE
:101C400004F0D2FD10BD10B50921022004F0EEFD14
:101C50002420FFF729FD0921022004F0C5FD10BD55
:101C600010B52048017801292ED1002404701E49A6
:101C70001948CA78801ED12A02D0DA2A22D10FE070
:101C8000194920310A7A0270497A41701348401C80
:101C9000027141710020401CC0B20928FBD311E041
:101CA000097A00290ED10D4902780A310A7140786B
:101CB00048710020401CC0B20928FBD37D20C00021
:101CC000FFF7FBFC0948047010BD0000A1A2A300AF
:101CD000A29100200338000004800020E46E002060
:101CE00098910020349100203691002035910020F9
:101CF000A44900204860704770B50521090708898C
:101D00003022904308810889802210430881088985
:101D100080088000401C0881088908231843088136
:101D200099480488144304804C8A9C434C820D8952
:101D3000402425430D810D8A0426B5430D828D8AEA
:101D4000AD07FCD58F4E002575600588012635430B
:101D500005804589AE058D4D068801D52E4300E0EE
:101D6000AE43068005887826B5432835058005886A
:101D70000626354305804D8A1D434D8203889343D3
:101D800003800A89A2430A814089800503D57E49E0
:101D90000520603188800120800701688215914309
:101DA00001607B4801683F22520291434214891826
:101DB0000160016802031143016070BD0321754891
:101DC00009028181082242800021491C9629FCD306
:101DD0008280704770494880088803221043088039
:101DE0000888042210430880664901200870704763
:101DF0007CB5644C217800292DD067490A885207A8
:101E0000FCD4CA880092898801911104019A89182A
:101E1000009162494843009904F0C2F80090002004
:101E200020700098A060009803F09CFF05462946AA
:101E30005B4803F022FE0A2103F05DFE03F099FFE8
:101E4000E060284603F0C8FF564A574B04F0BAF842
:101E500003F0D6FF20617CBD10B54A484168AA292D
:101E600005D07C205149081804F0BEF810BDC068A8
:101E700019210903884200D900BEFF20EB30F1E7A9
:101E800070B5414C6088C006050F04F0B3F8618856
:101E90001E2291436A001143618070BD10B5444910
:101EA0000120C863C86B0028FCD101208007C169EC
:101EB00040480268914201D20022026019238A1A26
:101EC000DB019A4212D3016004F09AF83A4A118871
:101ED000884201D9411A00E0091A89B2182905D3AC
:101EE0001080012004F092F804F096F810BD08B5B7
:101EF000244989684843314904F052F8009008BDEC
:101F000008B52049C9684843800A009008BD08B553
:101F10001C494968002903D0FFF7E9FF009008BD7C
:101F200004F080F8FAE708B516494968002903D09B
:101F3000FFF7E6FF009008BD04F07AF8FAE708B56D
:101F40001F4901204A695206D20F13D04A699206EE
:101F5000D20F0FD000220A610092FF225F32009B55
:101F60005B1C00939342FAD34969C907C90F02D099
:101F700004F064F8002008BD40183721C0000901B2
:101F800040187047288000202000005000100000FA
:101F90000002004020300050001600500024F400E1
:101FA000002474497B14AE47E17A443F01120000DB
:101FB000C00000407C0408007804080040420F0084
:101FC0000010005030B58D4A8D49D005048880231B
:101FD0001C4304808B4C65892D0701D4521EFAD214
:101FE000894C01222260894C0A882280884A4988CB
:101FF000118001889943018030BD002070477047EF
:10200000704770470020704701218907086B07223D
:10201000104308637047704710B57F497D480860DA
:102020007E494C2008807D4B7D4A203B1A827E49A8
:102030007C4848807E487D4901807C491931418037
:10204000222141818121890001827A4941827A4994
:10205000018378491131418375497848203188805E
:1020600041217748090181807649C180754C10343F
:10207000C48101824182891C8182611FC182FF214A
:1020800046310183704941837049592008806F4867
:102090006F4C20300480432444806E4C4C82D52108
:1020A0008180FF21D33101816B4941816B4981815D
:1020B0006C496B48088059486B4960384180C18839
:1020C00010242143C18062490A390181534C674978
:1020D000403C61805A82082141814D485B4900881B
:1020E00040390882494862490088088010BD40088C
:1020F000704700B58BB05F4A42625F4A82625F4AB6
:1021000042615F4AC2625F4A02605F4A02625F4A9E
:1021100042605F4AC261404A3E48002110603E482A
:102120004038026B03129A430263426B1F231B0465
:102130009A4303231B04D218426356480268C31211
:102140009A430260026803139A430260684641544E
:10215000491CC9B22829FAD3014628224E4803F067
:1021600073FFFFF759FF03F04BFF4C490880002035
:1021700003F04CFF03F050FF0BB000BD10B5264A32
:102180000F2124480902106023484038426B1F2366
:102190001B049A4303231B04D218426300060268FF
:1021A000D208D2000260052000070289920892003E
:1021B000521C0281028908231A430281028A0A43BF
:1021C000028237480068002808D10E4841898905F5
:1021D00004D501887822914308310180FFF71CFF64
:1021E0003048006F0078002804D02F4800880B4941
:1021F0006039C880012003F09DFE10BDA08601005B
:10220000087F0400200000500080004056020800B3
:102210004A0308004C05540780000040602C005021
:102220007F7F0000AC290000002200500909000057
:10223000002400502204000030D00000EE11000005
:10224000002500502E0200004420000040280050CD
:102250000D95000002420000E4DC00001092000036
:1022600053780000002A00508B1000009DD500001C
:1022700000260050FB1F0020FF1F0020052000202B
:10228000092000200120002017200020032000202A
:10229000EF20002000020040200008007804080021
:1022A0002C800020E00100205204080010B50446F4
:1022B00004F04EFA1249A00040188038406B002804
:1022C00001D0804710BDE106C90E012088400D49AC
:1022D000086010BD1320E9E70B4909480A88B038A7
:1022E000028000220A80012141808188491C81806E
:1022F0001420DBE71520D9E71620D7E71720D5E70C
:102300002091002080E200E082910020052000075B
:10231000828880210A4382805848818100218180FF
:102320000921018003218181028A40218A4302829E
:102330000122028183881343838051480268120A74
:1023400012020A43026088014E49086070474B48F8
:10235000818AC907FCD00088C0B2704747498A8A81
:102360009206FCD50880704700B5034602E0FFF7EF
:10237000F5FF5B1C18780028F9D100BD0346000664
:1023800000B5000F0A2801D2302100E037210818DB
:10239000FFF7E4FF1807000F0A2801D2302100E000
:1023A00037210818FFF7DAFF00BD70B50546002495
:1023B00003F050FE401E05E0295D2A5C2A55295491
:1023C000401E641C8442F7DB70BD70B50D46061ECE
:1023D00000DA704200240A2103F0E8FD303129556B
:1023E000641C0028F7DC002E02DA2D202855641C1E
:1023F000002028552846FFF7D8FF70BD08B569466C
:10240000FFF7E3FF6846FFF7AFFF08BD10B50446CE
:10241000000AFFF7B3FFE0B2FFF7B0FF10BD10B541
:102420000446000EFFF7AAFF2002000EFFF7A6FFEA
:102430002004000EFFF7A2FFE0B2FFF79FFF10BDE0
:1024400010B50E4801890907090F042910D1038826
:102450000D4A901E41785354491CC9B24170D4783A
:1024600000220123D12C04D0DA2C01D1092902D079
:1024700010BD4A29FCD10370427010BD00100050FD
:102480000CE400E000E100E03691002030B5484B5C
:102490001C680825C907AC43090F0C431C60196868
:1024A0000424D207A143520F114319601968022274
:1024B000C0079143800F014319603E4801688022A4
:1024C000090A09021143016030BD3B4B58809980D5
:1024D000DA807047FF203949013008607047FF20DB
:1024E0003649013080310860704710B53448002209
:1024F0004188491C41800178491CCBB20146183102
:102500000370142B11D302700B785B1C0B708B794A
:102510005B1C8B718B78002B01D05B1E8B70438A08
:10252000012B02D1038A5B1C03820B78322B26D14C
:1025300083885B1C83800A7083895B1C8381C388CA
:102540005B1CC38003895B1C038143895B1C438143
:10255000CB785B1ECB700B79012B01D95B1E0B7105
:10256000184C6388022B01D95B1E6380164C2378BC
:10257000002B01D05B1E23704B795B1E4B718B7956
:102580003C2B03D18A71C189491CC18110BD70B532
:10259000054614460E46012004F008FA284604F0C9
:1025A00011FA304604F020FA0348C48170BD0000DF
:1025B0000034005008E400E00034005000E100E086
:1025C00080910020409000202D90002008430121A0
:1025D000890303460B4343490B80434B1843088050
:1025E000092002434A8070473E490A880F239B0115
:1025F00000079A43800D02430A8070473949002042
:102600000880704737483949028802231A430280FC
:10261000491E02D302889207FAD400210181408921
:1026200070470AE000BF00BF00BF00BF00BF00BF8F
:1026300000BF00BF00BF00BF00BF401EF2D2704706
:1026400070B50121890204464E0000223046FFF792
:10265000BDFF1420FFF7E5FF002C01D0092000E0AA
:102660000720FFF7C1FFFFF7CDFF05460120FFF769
:10267000D8FF002211463046FFF7A8FF002C01D0FA
:10268000092000E00720FFF7AFFFFFF7BBFF40196D
:10269000144A0021118070BDF0B5124C14482080FE
:1026A0001420FFF7BEFF01256D02A580E58020887C
:1026B000E9000843208020888E10B0432080FFF777
:1026C000A1FF0746208830432080FFF79BFF02468A
:1026D000780071424018281A52005118691AA080D7
:1026E000E180F0BD0015005001400000A08601000F
:1026F0000148000010B54F484178007804F096F882
:1027000010BD10B54B484178007804F06DF810BD4D
:10271000F8B50E46154647490278079F0A7040787B
:102720001C464870FFF7EDFF052000078188012255
:10273000D202114381804048018849084900018044
:102740000188FF2281329143F20111430180018807
:1027500040229143AA011143018001880422914340
:10276000A20011430180018802229143069A52007F
:10277000114301800188012292039143BA0311435E
:102780000180018818229143089AD20011430180E8
:102790000188012211430180F8BD27490A885208A7
:1027A00052000A800A88FF2381339A43C001024302
:1027B0000A800888012210430880704710B51E481F
:1027C000018849084900018005200007818801220D
:1027D000D2029143818017484178007804F004F8D0
:1027E00010BD15480188490849000180704710B59F
:1027F000114900230A88D205920F012A01D9040C3D
:102800008C80488008888004FCD50120C880012A7B
:1028100001D9888803044888C01810BD10B5044643
:10282000FFF768FF2046FFF7E2FF0446FFF769FF66
:10283000204610BD0680002000120050F94AD160E9
:102840009060704710B50120FFF7A7FF0520000238
:10285000FFF7E4FFC0B210BD70B50024F24DFFF7E2
:10286000F1FFC00704D0641CAC42F8D30020C04381
:1028700070BD70B5FFF7F0FF002817D1FFF78DFF8F
:10288000FFF738FF9F20FFF7B2FF0020FFF7AFFFF1
:1028900005040020FFF7ABFF04022C430020FFF7E4
:1028A000A6FF20430546FFF72CFF284670BD70B5F4
:1028B000FFF7DFFFDB4CDD4A002114234B43D558E3
:1028C0009B185B681D4003409D420ED1142308B243
:1028D0004B4320809B189D68A560DB68E360142350
:1028E00058438018606048B270BD491C89B2042901
:1028F000E3D300206060401E70BD70B5FFF7ACFFF1
:10290000002815D1FFF749FFC74E00250620FFF725
:1029100085FF0024FFF796FFC10703D1800701D58B
:10292000002070BD641CB442F4D36D1C322DEDD375
:102930000020C04370BD70B5FFF78EFF002815D191
:10294000FFF72BFFB84E00255020FFF767FF00244C
:10295000FFF778FFC10703D1800701D5002070BDC4
:10296000641CB442F4D36D1C322DEDD30020C0435F
:1029700070BD70B5FFF770FF002811D1FFF70DFF94
:10298000A94E00250420FFF749FF0024FFF75AFF56
:10299000800707D0641CB442F8D36D1C322DF1D3EC
:1029A0000020C04370BD10B50446FFF755FF002856
:1029B00008D10120FFF7F1FEE01DF930FFF72EFFEF
:1029C000FFF74AFF10BD70B5064696480D46806871
:1029D0005119814201D9441B00E01446FFF73CFF26
:1029E00000281AD10220FFF7D8FEFFF783FE03214B
:1029F000284609060843FFF7FAFE0020FFF7CDFE40
:102A0000002505E00020FFF7F2FE30706D1C761CFB
:102A1000A542F7D3FFF775FE204670BD70B5054699
:102A200080480E46C0681446824200D984B2FFF73F
:102A300013FF00281ED1FFF760FF00281AD10220E3
:102A4000FFF7ABFEFFF756FE01213046490608436B
:102A5000FFF7CDFE0020FFF7A0FE05E028786D1CF3
:102A6000FFF7C5FE641EA4B2002CF7D1FFF749FEA4
:102A7000FFF7F2FE70BD70B50D460446FFF73DFF4F
:102A8000002802D00020C04370BD0220FFF785FE61
:102A900028062043FFF7C2FEFFF7DEFE70BD10B52B
:102AA000FFF72BFF002802D00020C04310BD0020FC
:102AB000FFF773FEC720FFF7B1FEFFF7CDFE40B270
:102AC00010BD0020C043704710B5FFF7C5FE0028B9
:102AD00012D10120FFF761FEFFF70CFE0920000371
:102AE000FFF785FE0020FFF782FE0020FFF77FFE44
:102AF0000446FFF706FE20B210BD70B5FFF7ACFE2E
:102B0000002801D0C11770BD0020FFF746FEFFF777
:102B1000F1FD4B20FFF76BFE0220FFF73EFE002089
:102B2000FFF765FE0020FFF762FE002504462846F9
:102B3000FFF75DFE06462E43FFF7E3FD30462146D4
:102B400070BDF7B582B0374F0E460091F968144654
:102B50000D46304603F024FA401C6843451E002011
:102B6000FFF71BFEB868801BA04200D20446264631
:102B7000002719E000988019A84202D900982E1A5F
:102B8000761C0298B2B2C0190099FFF747FF0028DF
:102B900003D00020C04305B0F0BD681C0090214860
:102BA000BF19C0682D18E61BA742E3D33846F2E7E9
:102BB00010B5FFF751FE002805D1FFF7EEFDB92053
:102BC000FFF72CFE002010BD10B50020FFF7E5FD3B
:102BD000AB20FFF723FE002010BD70B5114C054659
:102BE0006068002806D0FFF788FE002805D0002086
:102BF000C04370BD0520C04370BDFFF723FE616870
:102C0000097C884329400843FFF7CDFE70BD10B50D
:102C100004484068407CFFF7E0FF002808D040B23D
:102C200010BD000008800020400D0300406A002015
:102C3000FFF735FFF4E770B505462F480E46C0682C
:102C40001446824200D984B2FFF706FE00281DD147
:102C5000FFF753FE002819D10220FFF79EFDFFF772
:102C600049FD0121304649060843FFF7C0FD002019
:102C7000FFF793FD04E02846FFF7B9FD641EA4B2F8
:102C8000002CF8D1FFF73DFDFFF7E6FD70BDF7B56D
:102C900082B0194F0E460091F96814460D46304631
:102CA00003F07EF9401C6843451E0020FFF775FDC8
:102CB000B868801BA04200D204462646002717E0D1
:102CC00000988019A84202D900982E1A761CB2B238
:102CD00000990298FFF7AFFF002802D00020C04300
:102CE00059E7681C00900448BF19C0682D18E61BFE
:102CF000A742E5D338464EE70880002070B5EFF3D1
:102D00001085012080F31088264803F0A9F90446B5
:102D1000002D1DD0012080F31088002C23D02046E8
:102D20002038C08B204988421DD16189208903F059
:102D30009DF905000ED021461031A38962892089B2
:102D4000A847002806D001280DD002280BD105E0A5
:102D50000020E0E7204603F08FF904E01148214607
:102D60000C3003F08FF9EFF31084012080F310880A
:102D70000C480068002802D1012003F089F9002CDA
:102D800003D0012080F3108870BD0020FAE710B551
:102D9000BC21064803F082F90549012003F084F9BB
:102DA00010BD0000A80508003883000004060800D4
:102DB000FD2C0020F8B50D46064681002B48EA8818
:102DC0004458521C20686B89018F294F5143009150
:102DD000014640314A89C989511A8AB2991A89B281
:102DE000B94214D29A4212D0294603F063F92D89D0
:102DF0002049009803F0D4F82818801C4034E08261
:102E00003002401C80B2042103F05AF9F8BD282199
:102E1000304603F05BF9F8BDF8B505468700134866
:102E20000C46C059C9880068114E02464032538989
:102E3000D2899A1A92B28B1A9BB2B34211D20B4E1C
:102E40008A420ED003F048F9F05905225F30611C28
:102E500003F0FAF82802401C80B2052103F030F993
:102E6000F8BD2821284603F031F9F8BD4C030800CD
:102E7000FF7F00001027000070B516460D46104673
:102E800003F030F9002869D0340A304603F02AF9FB
:102E9000012812D0A87A1E2811D029460A310E28FE
:102EA00045D019DC801E030003F022F90B255829B8
:102EB000582D58315839583D5800022070BD3146C0
:102EC000274803F01BF90021204603F01DF90221D9
:102ED000304603F0F5F841E018283CD006DC102815
:102EE00019D012282BD0162838D130E0522822D001
:102EF000D22833D127E0204603F00CF92EE02046FB
:102F000003F00EF92AE0204603F010F926E02046EF
:102F100003F012F922E0204603F014F91EE02046E7
:102F200003F016F91AE0204603F018F916E02046DF
:102F300003F01AF912E0204603F01CF90EE02046D7
:102F400003F01EF90AE0204603F020F906E02046CF
:102F500003F022F902E0204603F024F9002070BDBE
:102F600001280000F3B581B001980C460102CA1D8A
:102F70000E310223344803F01BF904700199054611
:102F8000022732488E00002C06D0042C16D0062CC6
:102F900010D0072C3FD108E0815905224968897C6F
:102FA000114069708059C77335E0084603F006F98F
:102FB000687030E080590F21C1732CE004468059BD
:102FC0004068417C012902D1007E01280FD0019880
:102FD00003F0FAF801210028A0590BD04268D07DF7
:102FE00000281CD001281AD004280DD00FE00020A2
:102FF00068700DE04068C27D022A01D0042A06D123
:10300000007C02280BD102E0107C022807D06F70F0
:10301000A1590320C873284603F0DCF8FEBD69708F
:10302000F6E701460A780120042A01D900207047FA
:103030004A78002A01D0012AF8D10A79082AF5D85D
:1030400049790829F2D87047021C000028050800B9
:10305000FFB589B00D4600206946059008720B98AF
:10306000000A009003F0B0F807460B9803F03AF816
:1030700000287DD00B982978000A8400764E01291B
:103080005ED0042904D0062943D0072963D120E06B
:10309000687800281BD0305910224068A91C02F023
:1030A000D3FF002F06D03159C87B032807D004284E
:1030B00008D050E03059C07B032803D04BE00B20F0
:1030C000C87348E00521009803F08AF843E0012026
:1030D000B6E03059C07B0E283DD1009803F06EF861
:1030E000002103E02A18401C9170C0B21028F9D3C7
:1030F000688A69460883294606A8082214310230E6
:1031000002F0A2FF06ABAA1C3946009803F06EF845
:1031100021E03059C07B0F281DD1AA1C0A2100983C
:1031200003F06AF8002F04D03946009803F06AF8DB
:1031300011E000231A463946009803F069F80AE0C6
:10314000012F08D10B9802F0CDFF01281CD00028D8
:1031500001D0022005906846007A002811D002AA0A
:103160000521009803F048F86846027A602000E0E4
:1031700007E002436846027201233946009803F0D3
:1031800047F805980DB0F0BD3059C07B0228E2D158
:103190006878002851D002210B9802F091FF305935
:1031A00007224068A91C173002F04EFFE87800287B
:1031B00004D130594068407C01283AD0009803F08F
:1031C0002DF8002837D0297A009803F02DF8002830
:1031D00033D0009803F02EF80121009803F030F866
:1031E00000282CD030594068417E00292BD004297A
:1031F00029D0C17E027D1140C17630594068017FDF
:10320000427D114001776846007A0028A7D13059E5
:10321000022142680098173202F0EEFF30594168EF
:103220004031897B002913D004210098FFF79AFED2
:1032300091E7022004E0062002E0082000E00320DD
:10324000694608728BE70021C17630594068D9E79A
:103250000B21C1737FE700002805080070B5044604
:10326000007800250D2801D00A2200E002225A49E8
:103270004B7A002B06D00D2804D0637C032B01D0A1
:10328000432551E0097A8A4339D10D2809D00E2807
:1032900002D00F2803D134E0607C032804D34025FA
:1032A00042E0607C0328FAD8A07C0428F7D20A29DF
:1032B00008D0607C012822D0022820D06078032822
:1032C00009D811E002F0C2FF012806D16078032876
:1032D00003D0002801D0492526E002F0B7FF0028DE
:1032E00002D160780228F6D83020035D22462046BD
:1032F000E17C3132143000F019F8054614E0422523
:1033000012E002F0A3FF012807D16078052804D15C
:10331000A01D02F0A1FF0028DDD002F097FF0028D9
:1033200002D160780228D6D8284670BDFFB50020AB
:1033300086B001216A461170044605910021002CD7
:1033400006D0089D099A1F239A4234D9402032E0C2
:103350001C23069D079AF7E76B185E78330002F08E
:10336000C7FE1D2610101010101010101026262653
:103370002626262626262626262610101010101071
:103380002600059B03E06F46FF5CB74204D05B1E3E
:103390005BB2002BF7DA03E0002B01DB4A2006E0EA
:1033A000059B6F46FE54059B5B1CDBB205936B5C73
:1033B000491C5918C9B2914201D20028CCD091427F
:1033C00002D04A200AB0F0BD641CE4B2022CF9D24B
:1033D0000028B3D0F6E7000098050800F8B50C46C1
:1033E0009549164609680125002702228B1C3128C1
:1033F00073D012DC0C2874D008DC012821D00228FC
:1034000040D007284FD00B2869D156E010287FD034
:10341000112876D01228F7D18EE00123412871D0EF
:1034200008DC32286FD035286ED036286DD0402881
:10343000EAD1B3E0422869D0432868D04428E3D1D8
:10344000D1E006227D497E4802F00CFF002808D01A
:1034500006227B49304602F0F7FD0620207000204E
:10346000F8BD754801680878C00738D0207806286C
:1034700001D22770C4E006223046983102F0E4FD04
:1034800006200EE00A786C48920728D522783E2A5A
:10349000EFD305464A7E30465A3102F0D5FD286802
:1034A000407E2070A9E00878400718D520780228CF
:1034B000DFD3887C3070587C7AE00A785E48120747
:1034C0000DD52278202AD4D30546CA7D30461A313C
:1034D00002F0BAFD2868C07DE3E736E001E079E05C
:1034E00016E00A785448D20674D52278202AC0D330
:1034F00005460A7E3046983102F0A6FD2868007E17
:10350000CFE70FE056E02AE036E03DE05AE062E027
:103510000878800672D520780428AAD30422304681
:10352000091D25E00878400668D52078002867D076
:10353000087D08E0227060E0087800065ED52078FB
:1035400000285DD0487D3070F4E70888C00555D567
:10355000207804288DD3042230460C3108E00888F6
:1035600080054BD52078042883D3042230460831C7
:1035700002F06AFD042094E7088840053ED52078D3
:1035800000283DD0887D36E00888000536D52078B3
:1035900002288DD3087C3070487C09E00888C0047C
:1035A0002CD5207802288ED38231087F3070487F56
:1035B0007070BFE70888800420D5207800281FD0CD
:1035C000A03117E00888400418D52078002817D0CB
:1035D000A1310FE012E0088800040FD52078002800
:1035E0000ED0A23106E00868C00307D52078002875
:1035F00006D0A33108783070237000252846F8BD26
:103600000425FBE770B50F480F49C40522888025C3
:103610002A4322800D4A53891B0701D4401EFAD247
:103620000B4A012010600622054802F00DFD20889B
:10363000A843208070BD0000C0060800383E03008B
:103640003C800020A0860100D47F040020000050B0
:1036500000800040F0B5564D85B00026686D3746B5
:103660000190FDF792FF0021524C002802D12079F1
:10367000022800D10191504802685048002A0FD119
:103680000278002A0DD04E4B0122DA63DA6B002A51
:10369000FCD101229207D2691923DB019A420ED391
:1036A000017002F0E5FD00287ED0E07801260028B8
:1036B0007AD005200007808AC00701D0042673E075
:1036C00002F044FC00286FD13E4800683F2804D136
:1036D0002079002801D1286D0190A17801A802F07D
:1036E000CDFD002860D0A17801A802F041FC00289F
:1036F0005AD0344800683F2803D102F0C5FD0028A5
:1037000052D02D480068AA281DD0972007210125F6
:10371000AD07EA6B920A92027F1C3A43EA63EA6BB6
:10372000294B80021A400243EA63E86BC002C00AD8
:1037300049050843E863204804260068002807D0AC
:10374000AA280FD01DE02148FEF7E1FB0321DEE7A8
:1037500001986421C00202F023FC2179401E0CE094
:1037600001210CE0019802F0FDFA1949096802F004
:1037700047F902F0FEFA009021790029F0D102F019
:1037800089FD1448C06A8047286B0004C00FFBD035
:1037900011480168C905FCD502F082FD052000072B
:1037A0000189802291430181304605B0F0BD0000BF
:1037B00060020020C60608002C8000202280002025
:1037C000C000004060010020FF03E0FF0112000084
:1037D000388000201C0708000002004010B50124BA
:1037E000A407A06BFEF79FFB5F4902F0D9FB2722DD
:1037F0001201511A00D101215C4A50601160206B06
:10380000082188430843206310BD38B5002000908C
:1038100057490820088005242407218830200143C7
:103820002180218803221143218002E000BF00BFD4
:1038300000BFA18A0906F9D56189890889006181DB
:103840004C494A88520852004A802188814321808D
:103850002088800880002080A08A400701D5FEF7DC
:1038600054F92089802108432081208A042188433B
:103870002082A08A8007FCD53F4841050268D20219
:1038800002D40A69520702D4009A002AF6D038BD41
:1038900010B502F00BFD02F00FFD10BD10B502F0E7
:1038A00011FD05200007418A802291434182304862
:1038B0000189490849000181304800683F2801D149
:1038C00002F006FD01208007816904221143816115
:1038D00002F004FD02F008FD02F00CFD284800682B
:1038E000AA2802D11420FEF775FA26490020087094
:1038F00010BD10B502F004FD10BD10B50120800709
:10390000008A000704D502F001FD1E49032008705B
:1039100010BD70B51C48008885061748AD0E446878
:1039200016488030006F0078002802D1284602F047
:10393000F3FC16480089134EC00507D520060BD5A9
:10394000E00709D0284602F0EDFC03E0200603D58D
:10395000E00701D002203070200403D5E00501D536
:103960000120307070BD0000710200004000004076
:103970000033005020000050000200406001002091
:103980002C8000204280002000200050002C00509D
:10399000F8B514460F461E460546428801880623A0
:1039A000204602F005FC0446287902F0C1FC208084
:1039B00027716680204602F00DFCF8BD70B51446F4
:1039C000428800790D460102042334480C3102F08C
:1039D000EFFB002D01D0132100E012210170448083
:1039E00002F0F8FB70BD0A880270120A42708A78F1
:1039F0008270CA78C2700A7902714A7942718979F3
:103A00008171072070474278037812021A430A80B6
:103A100082788A70C278CA7002790A7142794A71D2
:103A2000807988710720704710B500F03FFC00F0E6
:103A300047F800F07FFB10BD70B5064615460C46F2
:103A4000372002F04FFB022805D1E2B23723294686
:103A5000304602F073FC362002F044FB022805D108
:103A6000E2B236232946304602F068FC1C2002F000
:103A700039FB022805D1E2B21C232946304602F068
:103A80005DFC07A0FEF770FC0B49002008701422B3
:103A900032210A4800F090FC70BD00000D3000009B
:103AA0000A0D6475616E206B6169206C69616E201E
:103AB0006A69650A000000002080002001C800003B
:103AC00010B52821054802F03FFC0549372002F0D7
:103AD00041FC0021372002F0F3FA10BDA291002032
:103AE000906A00203EB50020C043704C0290E380F5
:103AF000088860816E4801900092204600230922C8
:103B000002A90A3002F02CFC05466089002102F06F
:103B10002DFC002D03D10121372002F0D1FAE188DC
:103B200001233722634802F043FB057002F052FB89
:103B300000203EBDF8B5002568465C4C05806280DB
:103B40002380E3800E46488802F016FC20717088BE
:103B50002081E581A581258260896A46801C80B22A
:103B6000022102F035FA60896A46C01D80B2022146
:103B700002F02EFA6089012102F0F8FB02213720C1
:103B800002F09EFA0020F8BD10B50121372002F0A6
:103B900097FA002010BDF0B587B00C46142101A89B
:103BA00002F07CFA23460833A288618820881D46EB
:103BB00002F0E8FB3D48218842898A1A022A04D093
:103BC000062A70D0072A6ED169E0007A002202F03E
:103BD000DFFB6288294601A802F036FA68460079C0
:103BE000AA2860D168464079BB285CD16946324832
:103BF000897941716946C97901716946097AC1704B
:103C00006946497A81706946897A41706946C97AFC
:103C1000017000200322072312020146009002F0E7
:103C200017FC264D00242868E443002801D02046D4
:103C300000E00120224E28603268C11773681043EB
:103C40001943306071600F273F0320213846FEF78B
:103C500012FF062239461848FEF7E0FE16490120F9
:103C6000491E087014223221164800F0A5FB16A048
:103C7000FEF77AFB00200322034612020146009061
:103C800002F0E6FB2868002800D101242C6032688D
:103C9000E0177168144308433460706003E0007AF1
:103CA000002202F075FB002007B0F0BDA2910020B9
:103CB000CC6A002006DC00001980002080900020E3
:103CC0007890002001C8000073746F726167655FAF
:103CD0006F6B0A0D00000000FFB58BB00521C90213
:103CE00068468182C91C0182FA490183FA4C362157
:103CF0006180062199250091082200230195362133
:103D0000A01D02F04BFB05007ED1A01D01250095F2
:103D100001900222E08805AB114602F045FBE088E5
:103D2000EE4A022102F054F903AE01960095E088B4
:103D300004AB0222132102F037FB02AF09200197E6
:103D40000090E088E64B1022042102F02DFBE549AB
:103D50006846007A48706846407A88700A46684625
:103D60001321808902F034F901960095E08804ABB4
:103D70000222132102F018FB092001970090E0882D
:103D8000D94B1022042102F00FFBD8496846007A73
:103D900048706846407A88700A46684613218089D0
:103DA00002F016F901960095E08804AB0222132177
:103DB00002F0FAFA01970095E088CD4B1022042119
:103DC00002F0F2FACB496846007A48706846407AB9
:103DD00088700A4668461321808902F0F9F8019636
:103DE0000095E08804AB0222132102F0DDFA0920DD
:103DF00001970090E088C04B1022022102F0D4FA13
:103E00006846BE49007A00E058E048706846407A4B
:103E100088700A4668461321808902F0D9F8019615
:103E20000095E08804AB0222132102F0BDFA0920BC
:103E300001970090E088B24B1022142102F0B4FAEE
:103E4000B0496846007A48706846407A88700A46E9
:103E500068461321808902F0BBF8AB4D01960095AE
:103E6000E08804AB0222132102F09EFA019700952C
:103E7000E088A64B1022012102F096FAA449684678
:103E8000007A48706846407A88700A46684613216E
:103E9000808902F09DF809A9092001910090022271
:103EA000E08806AB114602F07FFA0546E088002163
:103EB00002F05CFA0121362002F002F901233622D9
:103EC00094480E9902F074F9057002F083F900200D
:103ED0000FB0F0BD3EB5804C0D46E08802AA0C3014
:103EE00080B2694602F066FAE08801AA0D3080B21D
:103EF000694602F05FFAE088AA1C0C3080B201210A
:103F000002F066F801980088002806D0E0880021B9
:103F10000C3082B22046FFF751FD00203EBD10B5A7
:103F20006D480A46C0880421801D80B202F050F816
:103F3000002010BD38B50D4600206946664C08804B
:103F40002380288802F018FA2071FF2817D0E08813
:103F50006A460D3080B2022102F03AF8E0886A46E3
:103F60000C3080B2012102F033F8A978E08802F029
:103F7000FDF90221362002F0A3F8002038BD654A81
:103F80001B23DB02521C89215348FFF701FDF4E794
:103F9000F8B5514D0C4629798022180A88427DD106
:103FA000E988208826468B1C0027083698420ED1C7
:103FB000012100916188324602F00AF8E079002878
:103FC00075D05448082336222988C01F10E00B1DE5
:103FD000984229D1022100916188324601F0F8FF10
:103FE000E079002863D04B48298808233622801FB7
:103FF00002F0DEF80646287902F09AF93080776000
:10400000E07A01067160A07A000401437160607A71
:10401000000201437160207A014371600098B07022
:10402000304602F0D7F842E00B460A3398421BD1E3
:1040300004200090E079002839D0364829881823D8
:104040003622001F02F0B4F80746287902F070F912
:10405000388062883146381D01F0F6FFA078F8708C
:104060000098B8703846DCE70B460833984220D1F8
:10407000032100916188324601F0AAFFE07900280F
:1040800015D02448298806233622401F02F090F8D4
:104090000646287902F04CF9308000E018E0B7803D
:1040A000607A0102B180207A0143B180B6E7002234
:1040B00007E00D31884204D16188324601F088FF63
:1040C000F5E7A079012803D12188287902F060F969
:1040D0000020F8BD0229000044800020C86B0020A9
:1040E000CA6B0020F76E0020DA6B00200A6F0020F8
:1040F000EA6B00201D6F0020FA6B0020306F00205B
:104100000A6C0020436F0020010200001A6C00209E
:10411000566F002009D8000010B5054A180A127918
:10412000904202D1088800F026F8002010BD00005F
:104130004480002010B508211A4802F005F91A49F8
:10414000362002F007F90021362001F0B9FF10BD3A
:1041500070B5144D0646298818233622134802F0FC
:1041600027F80446287902F0E3F82080A67020465C
:1041700002F030F870BD70B50A4D0446E8880021A1
:1041800002F0F4F80948298804233622001F02F0BF
:104190000FF8048002F01EF80121362001F090FF94
:1041A00070BD0000448000202C6C002005D8000069
:1041B000FEB53B4E1C2070801D46174634460888CD
:1041C00000F082F8029037483346019008331322FA
:1041D00002A90097A01D02F0C3F8040008D1F088DE
:1041E000002102F0C3F8044601211C2001F068FF01
:1041F00001231C2229462C4801F0DAFF047001F04B
:10420000E9FF0020FEBD70B50C4625490B802078E3
:10421000082814D8CA880831415C51188DB2822D03
:104220000BD0617800F063F8010009D16D1C617852
:10423000A8B2A21C01F0CCFE08E0822100E081219E
:10424000194B17485B1CDA1CFFF7A2FB002070BD5E
:1042500070B51D460C46088802F08EF8104AFF28FB
:104260001071158009D0A178D08802F07FF8022162
:104270001C2001F025FF002070BD0B4B89219B1CE9
:104280009A1C0748FFF784FBF5E710B5044A180AA3
:104290001279904202D1088800F03EF8002010BD4B
:1042A0004E8000207C6C00200170000010B51221AF
:1042B000244802F049F824491C2002F04BF8002160
:1042C0001C2001F0FDFE10BD30B503460120002189
:1042D00003241A46CA40D20704D04D0022466D1C62
:1042E000AA401043491CC9B20929F2D330BD024685
:1042F0000020122901D98D207047062A06D0072AEE
:1043000007D0082AF8D10729F5D170470829F2D13A
:1043100070470629EFD3704770B50A4C05462188CF
:1043200002231C22094801F043FF058001F052FFDF
:10433000E088002102F01AF801211C2001F0C0FEE3
:1043400070BD00004E800020906D002004700000C1
:1043500038B50124684604700C214E4801F0F4FF82
:104360004C4D6946EC702A1D352002F029F80028D2
:1043700000D02C7100F0ABFB4749322001F0EAFF7E
:104380000021322001F09CFE00F0D0F838BD10B5BD
:1043900000F092FC10BD10B53E4802238078322216
:1043A00001023E480E3101F003FF0121017013218B
:1043B000417001F00FFF10BD394B10B59A4201D981
:1043C0001A4602E0002A00D1012201F0FFFF10BDD1
:1043D00010B504462F482C238078322201022F4842
:1043E0000E31801E01F0E4FE0146203004720022EE
:1043F0004272084601F0EEFE2AA0FDF7B5FF3149F2
:1044000001200870142232212F48FFF7D5FF10BD7C
:1044100010B5502332220D212C4801F0C9FE04466C
:1044200000F079FB204601F0D5FE0221322001F098
:1044300047FE10BD254810B5012332220D210B384F
:1044400001F0B6FE0221017001F0C4FE10BD10B5EE
:1044500000F051FC10BDF8B506461C4815460F4645
:10446000252332220D21C01C01F0A2FE04460120AA
:1044700020772046062239461D3001F0E5FD232035
:10448000065565822582204600F056FC204601F044
:10449000A1FEF8BD60800020A06D0020043800005F
:1044A000307500000A0D20424C452073746172740F
:1044B00020636F6E6E656374206C69616E206A693B
:1044C000650A00002080002001C800000E340000B2
:1044D00010B501F081FF254901F068FD2448081856
:1044E00010BDF8B5234D0646A876002401F074FFF0
:1044F0002919641CE4B20874082CF7D3002410278F
:10450000381BB04201DD002007E001F065FFC11754
:10451000090E0918090A0902401A2855641CE4B258
:10452000102CEDD301F058FF2883F8BD10B52421DD
:10453000104801F009FF00F0D0FA10BD10B50E4888
:1045400002238078322201020C480E3101F030FE45
:104550000D210170074920318978417001F03AFE40
:104560000321322001F0ACFD10BD0000A0BB0D0006
:10457000A08601006C800020608000201A380000B6
:1045800010B5084609781C460B0001F0B1FD08057E
:1045900020202008181B1E2000F0D1FB17E04178D6
:1045A000012904D0002902D0022903D00FE000F035
:1045B000C7FB0CE01146204600F0CBFB07E000F003
:1045C000C0FB04E000F0BEFB01E000F0BCFB0020FB
:1045D00010BD10B50878304C801E030001F088FD36
:1045E000020214188878A070C0070AD02B492A4A02
:1045F0004879203AD07628480622001F891D01F00C
:1046000023FD00F0A1FB03E0FFF7C5FE0020A07032
:10461000002010BDF8B518460D460146122320486B
:1046200001F0C6FD0446284600F08FFB0027002855
:1046300021D0194EB078C0071DD030460822A91CE1
:10464000103801F00FFE002815D130462038018BBC
:104650002A8891420FD101212170807E60743146F9
:1046600010222039601C01F0EFFCB078FFF7B0FE9B
:1046700000F06EFB00E02770204601F0ABFD2078D3
:10468000002801D1FFF787FE0020F8BD10B500F02B
:104690005EFB002010BD00008C80002060800020A8
:1046A0001838000010B5104601F01CFD002809D193
:1046B000012332220D21484801F07AFD01210170C9
:1046C00001F088FD002010BD70B5087815460F2850
:1046D0002DD008DC01280DD002282CD003281CD0B6
:1046E0000E2830D11FE0102825D0112823D0122801
:1046F00029D123E04878002825D1374822233222C7
:104700000D21801C01F054FD04460146284600F0AE
:10471000F3FA204601F05EFD15E04878002812D13A
:1047200000F0F5FA0FE0487800F0FFFA0BE0487867
:1047300000F0FCFA07E000F0FEFA04E048784428B4
:1047400001D100F0FBFA002070BD70B51C46104688
:104750000D4601F0C7FC022805D12049200A8870C7
:10476000284600F0BBF9002070BD70B508781546EA
:104770000C460A2810D1104601F0B4FC04280BD1D5
:104780006078002802D000F0CEFA05E00521284626
:1047900001F096FC00F0C8FA002070BD10B510467C
:1047A00000F075FA002010BD10B510460C4601F05F
:1047B00099FC012808D12078002805D1FFF7E7FDF2
:1047C000002801D000F0B3FA002010BD10B5084653
:1047D00000F0B3FA002010BD023400006080002019
:1047E000F8B50120FDF700FFFDF70CFF85B2FE4E86
:1047F0000027FE4C002D18D06079012815D0FC4808
:104800000078012811D0284601F0D6FB0022F94B90
:1048100001F022FA0022F84B01F02CFA0022F74BAB
:1048200001F0D0FB01F0BAFA3070284601F0C4FB69
:104830000022F04B01F010FA0022134601F0CEFBEB
:1048400002D8002D00D03770E849E0783278103176
:104850000A54401CC0B2E070A278002A06D140225F
:1048600002E00A54401CC0B20A28FAD3DF480A21E9
:104870001030FDF7ABF96070E07801250A2801D30C
:10488000A570E7706078642802D96420607026E023
:10489000142824D8DA4803210088064601F080FB5A
:1048A000002907D00021022001F0C0FFE079012893
:1048B0000AD00BE00621304601F072FB0029F5D149
:1048C000022001F091FFF1E7CE48077060780028E0
:1048D00005D114223221CC48FFF76EFDA571CA48DC
:1048E0006179801E012905D014223221FFF764FD71
:1048F0000020F8BD322101F001FCF9E710B5BB48FA
:10490000017AC148401E002904D064223221FFF7F9
:1049100053FD02E0322101F0F1FB002010BDF8B59B
:104920000220FDF761FEB14D00242879B74F002821
:1049300002D13C8001202871FDF764FEE97AAB4E7C
:1049400049001A3670525520FDF708FDE87A4000FC
:10495000305CFDF703FDE87A401CC0B2E8720090BD
:10496000308871884018B1884018032101F018FB85
:10497000E8810098032800D1EC720121084601F07B
:1049800055FF0021012001F02FFF0721022001F037
:104990002BFF0021084601F027FFEB89112252016D
:1049A000934202D23888012828D9994899499342DC
:1049B0002DD3994B01221A800A88312A1ED90470FE
:1049C0002C713C800C800721022001F02FFF002178
:1049D000084601F02BFF34807480B480F480348169
:1049E000EC818948EC726C7114223221801EFFF731
:1049F000E3FC3221844801F081FB06E032221146BB
:104A00008148FFF7D9FC012068710020F8BD2C71A6
:104A10003C800C800470D6E7F8B50220FDF7E4FD79
:104A2000FDF7F0FD714EF17A34464A001A34491C04
:104A3000A052CFB2F772208861884018A188401830
:104A4000032101F0ADFA0025F081032F00D1F572AA
:104A50000021012001F0EAFE0121084601F0C4FE18
:104A60000021084601F0C0FE0721022001F0BCFE33
:104A7000F089012796281DD3654807700721022079
:104A800001F0D4FE0021084601F0D0FE25806580AB
:104A9000A580E5802581F5815B48F572757114224A
:104AA0003221801EFFF788FC57483221401C01F05C
:104AB00025FB06E0544864223221401CFFF77CFCB1
:104AC00077710020F8BD002070470020704710B5B6
:104AD00000F076FF00F07EFA10BD704710B54F4C25
:104AE000A078FF2814D048483221001D01F006FBB1
:104AF0000521322001F0E4FA208800F06FFF00F079
:104B000087FA00F08FF946488078FFF761FC10BD06
:104B1000FFF77EFC10BDF0B5044693B041A0FDF751
:104B200023FC394814223221801EFFF745FC2F4810
:104B3000012101700E202070002767709620A0814F
:104B4000E0810720207461741C20E0742546224611
:104B50001F202035143228741646511E0B2001F0F8
:104B60002FFC002805D00A22E2743AA1304601F059
:104B70006BFA22463132511E0C20119201F020FCBA
:104B8000002805D02F743A4635A1119801F05CFA3F
:104B9000E07C1A21081A45B2002D76DD3E206946D8
:104BA000087001AA022001F00BFC002806D00D229B
:104BB000684602702BA101A801F014FC6846007839
:104BC000002862D0A84200D2054669460D70E07CFC
:104BD0006D1C8555E27C2046092115301154E17C7D
:104BE000401C0818694646E0696F0020CA91002001
:104BF00031900020001883400000614000005940BF
:104C000088910020D86E002004C800008E910020FA
:104C1000D96E0020909100209291002060800020A9
:104C20008C8000200A206170705F6164765F667519
:104C30006E6328292D2D2D2D6170705F74696D654F
:104C4000725F736574284D4F544F525F5245534500
:104C5000542000000903031802180418F5FE000090
:104C600002FF0000444131343538302054454D5066
:104C70004C00000009E00A7801A901F0E5F9694655
:104C80000878E27C801C1018E07413B0F0BD10B5F9
:104C9000044653A0FDF768FB204601F023FA0328E1
:104CA00003D0052801D0042805D10221322001F0CB
:104CB00007FAFFF7ADFB10BD70B500244E49042084
:104CC00008734E4DE878042812D2012807D0022834
:104CD00002D0032808D105E000F098F804E000F0C5
:104CE00070FE01E000F088F9E878401CE87000E010
:104CF0000124204670BD7047032008700A204870C8
:104D000000204882087548751720C882704710B582
:104D10000121322001F0D4F9FFF739FB002801D03E
:104D2000FFF776FB10BD704770477047704710B5AE
:104D3000FFF76EFB10BD70477047704770477047B4
:104D40007047704770477047704701207047704741
:104D50007047704710B5322001F0C4F910BDF8B5A6
:104D6000254C0025607A264F264E052827D2A17AA9
:104D7000002912D02449A5720978002901D0C00762
:104D800017D13878012814D00221012001F04EFDFE
:104D90000021022001F04AFD0BE00120A072022157
:104DA00001F022FD0021022001F01EFD607A401C6E
:104DB0006072142232213046FFF7FEFA0DE0022124
:104DC000012001F033FD0021022001F02FFD65726A
:104DD0003D703221304601F091F90020F8BD00000D
:104DE0000D206170705F646973636F6E6E656374CC
:104DF0005F66756E630A0D00CA9100206080002016
:104E00001880002001C800002080002010B5022377
:104E1000322237210B4801F0CBF90021018001F04B
:104E2000D9F910BD10B5372104233222880201F0D0
:104E3000BFF93221018004490988418001F0CAF993
:104E400010BD000005DC00006080002010B5104699
:104E50000C4601F047F9012809D1322201231146FD
:104E6000900201F0A5F92178017001F0B3F900205A
:104E700010BD000010B510460C4601F033F90128B2
:104E800009D1322201231146900201F091F92178D3
:104E9000017001F09FF9002010BD70B54A4C0D461D
:104EA000207814283DD2A97800293CD0E168002957
:104EB00033D0C00618D4207CEA78811850292ED827
:104EC00042494018291D01F0BFF8207CE9784018BC
:104ED000C0B22074E168814201D100F034FA207C34
:104EE00018E000F0A7F81EE0EA786069FF23811857
:104EF0000133994213D836494018291D01F0A4F80E
:104F0000E978606940186061E168814201D100F090
:104F1000D8FB6069E168884205D90520E1E70720F0
:104F2000DFE70820DDE7002070BD08B5887800289D
:104F300006D04868694600F0BEF8009800F021F9F4
:104F4000002008BD10B5887800280ED01E4A496898
:104F50009160107802280AD0032808D0122804D0C3
:104F6000132802D0082000F065F8002010BD526818
:104F70000006104301F03CFA00F003F9F5E770B5C4
:104F800088780D4600281DD0A888002805D00E4C32
:104F90002178CA0603D4820701D005200EE0142927
:104FA00010D2C90605D4502807D800F01FF8A888E9
:104FB00007E0FF210131884203D9072000F03AF8C9
:104FC00000E0E060002070BD948000206C6F002045
:104FD000BC6F0020FD480021017441618161C16006
:104FE000FB4A01771165142101707047F7480021D1
:104FF00001744161C160704710B50123322236212E
:10500000F44801F0D5F80021017001F0E3F810BD7B
:1050100010B5362110233222880201F0C9F8EE497A
:10502000098801800121817000214160816001F0C7
:10503000D1F810BD10B50446E84804230288E548BD
:105040003621401E01F0B4F8E349098801808470DC
:1050500001F0C0F810BD10B5DC4C2078032801D158
:10506000FDF7ACFB1420207010BD08B5AA206946DE
:105070000870D648017813290AD141680122684690
:10508000891CFDF75EFD40B2012801D0062008BD55
:10509000022008BD10B5CD4C2078C00601D40120F7
:1050A00000E01020FFF7C6FF002020746061A061BF
:1050B000E060207710BDF8B50F460021060EC34C06
:1050C00035463960142E17D2257080B26060002DED
:1050D00001D0012D07D1C249280608436160002193
:1050E00001F086F938602078122801D0132803D106
:1050F000606802280BD86074112E26D00EDC022EB8
:1051000020D006DC002E1DD0012E13D11AE0112074
:1051100022E0032E16D0102E0CD116E0FD2E2CD03E
:1051200004DC122E0ED0132E04D10BE0FE2E16D06E
:10513000FF2E0CD00820FFF77DFF142020700020E8
:105140003860F8BDFFF7A6FFF8BD082004E0FFF7C0
:1051500082FFFFF74BFF0320FFF76CFFF8BD207FB6
:10516000002801D0042001E0FFF77FFFFFF762FF76
:10517000FFF771FFFFF73AFFF8BD002001F03EF99D
:10518000F8BD10B50446954804230288914836219D
:10519000801E01F00DF8046001F01CF810BDFEB592
:1051A0000646002001242404009001900346024694
:1051B0000146029025123046FDF7AAFAFDF784FC5D
:1051C000884980B2401802D0012805D102E00124AC
:1051D000640401E00124A40429462046FDF72EFBC7
:1051E000FEBDF8B5044679487F4E017A00270906CE
:1051F000090FA171027AFF4313071B0FE3710289A4
:105200001204120F227002891205120F6270826856
:105210001202120FA27082681203120FE2708268EB
:10522000120F227180680001000F60712820414335
:105230008A1999005058002801D0384600E0012012
:105240005050A579E279C11701F0DEF82A0101F08A
:10525000DBF8664A136855681843294310605160AB
:10526000A078282148438219E0788100505800280E
:1052700001D0384600E001205050A578E278C117EF
:1052800001F0C2F82A0101F0BFF8584D2A686B6896
:105290001043194328606960207928214843821906
:1052A000607981005058002801D0384600E0012084
:1052B000505026796279C11701F0A6F8320101F049
:1052C000A3F82A686B681043194328606960207846
:1052D0002821484344494118607880000A58002A30
:1052E00000D101270F50384626786278F91701F06F
:1052F0008BF8320101F088F82B686A681843114373
:1053000028606960012000900326360261782078C9
:105310000823324601F09CF800250095E179A07938
:105320000723324601F094F80095E178A07806232F
:10533000324601F08DF8009561792079052300222D
:1053400001F086F8F8BDFEB5204C02252078EE016C
:10535000002805D0012803D0032828D0082566E0BE
:105360001F4F00063843002101F042F88004217CE1
:10537000000C0A18B24227D8301A154A401A121FD8
:10538000891880B25432101805E00A6804C0227CE3
:10539000121F2274091F227C002AF6D120780021D6
:1053A0000006384301F024F8FFF7EBFE3BE0032052
:1053B000616800060843A16801F01AF88004070C30
:1053C000207CC019B04213D9072530E0948000201A
:1053D0006C6F002008D8000060800020448000200E
:1053E000B8700020F010FFFF80900020789000201F
:1053F0006846FFF7F6FE6846FFF7D1FE6068227C3C
:10540000C119FE48FDF79DFB217C814200D0062595
:105410002078616800060843A16800F0E9FFFFF703
:10542000B0FE022D03D1FFF716FEFFF7DFFD284681
:10543000FFF700FEFEBD70B502460020160BC0430C
:1054400036030C0B090500D0641C002C01D000258C
:105450000BE00124002520213046FDF70CFB012143
:1054600009037618002802D16D1CA542F3D370BD44
:105470000021FF2802D0401CC0B270470846704788
:10548000FF2802D0FF2905D006E0FF2908D0002917
:1054900006D001E0002801D0884201D902207047DF
:1054A0000120704710B5D64C034600202478C04335
:1054B000132C02D11846FDF786FA10BDF7B598B047
:1054C00000271A980C463E46402805D320787028BD
:1054D00002D16078512802D012201BB0F0BD65685F
:1054E000C7492846403008621F210C22090368463C
:1054F000FFF7D8FF0C2847D168460078702803D101
:1055000068464078522801D01420E6E701981190AF
:1055100002981290002D03D01199401AA84201D28E
:105520001320DAE7684640221090FFF7BBFF4028BF
:105530002AD16846C07814906846817803A81690EE
:1055400020460C301590AA2907D1684600787028AB
:1055500003D168464078512803D0012700201490D9
:105560000BE010221699159800F07CFE002804D15B
:10557000E0690799884200D10227402212991098C9
:10558000FFF790FF402801D01620A6E76846C078B4
:10559000139068468078AA2807D16846007870285A
:1055A00003D168464078512803D00126002013908B
:1055B0000BE010221699159800F054FE002804D133
:1055C000E0690799884200D102261898002801D086
:1055D000022807D9012F11D0012E1CD0139914983D
:1055E000FFF74EFF1590FF224021684600F012FFA2
:1055F0001598022815D0022F24D004E0FF22402164
:10560000684600F007FF7E4911984860002E1BD0C5
:10561000022E19D00EE0FF224021684600F0FAFE6B
:1056200001E0022E0ED0764912984860002F07D074
:10563000022F05D00126724F3878132809D00FE0C9
:10564000149802E0152048E71398FFF711FF06466B
:10565000F1E74035A9B27868FFF7EDFE00282CD1BC
:105660006846C67060680190A068029020460C30C1
:105670000EC8A069069003A80EC0E06907902178C3
:1056800068460170617841702020015D08A80170B2
:105690003878132813D11A9A7968403A204615466B
:1056A00040304031FDF74DFAA84206D140227968DA
:1056B0001098FDF746FA402801D006200DE700209B
:1056C0000BE77CB54E4C4D4A0226002050326169F2
:1056D00004E0237F155C6B402377401C8142F8D89F
:1056E0002078132804D00826F0B2FFF7A3FC7CBD75
:1056F0006846FFF776FD6846FFF751FD6269002AAC
:1057000002D0A069002818D0A169206A8A18431C19
:105710009A4220D8824201D9401A606160682546C9
:105720004118364862695030FDF70BFA69698142C9
:1057300011D1A8694018A8610EE03049607C503151
:10574000FFF7BCFE002801D086B205E06269A169BE
:105750008918A16100E0062600206061A069FFF7BA
:1057600010FDC1E770B5274C274D2146284600F0B3
:105770003FFE0104090C06D0204A83B25032214674
:10578000284600F04DFE70BDF8B504461C481F4F7A
:10579000017A00250906090FA170017AED43090776
:1057A000090FE17001890904090F217002891205AE
:1057B000130F63708068000C606028204143CA1991
:1057C00099005058002801D0284600E00120505090
:1057D00026786278C11700F017FE320100F014FE3F
:1057E0000B4E326873681043194330607160A078C3
:1057F00028214843C119E07880000BE06C6F00203D
:1058000094800020000306050028000380900020FB
:10581000789000200A58002A00D101250D50284612
:10582000A778E278E91700F0EFFD3A0100F0ECFD0F
:105830003368726818431143306071600025009529
:105840006178207809232A4600F002FE0095E1786D
:10585000A0780A23002200F0FBFDF8BDFEB510463B
:105860000D4600F03FFC01287ED12878002879D130
:105870000E2332221C21434800F09AFC04460020EB
:1058800020700B2767703A463FA1A01C00F0DCFB9C
:10589000204600F09FFC0A2332221C21394800F0E8
:1058A00087FC04460120207007206070024639A161
:1058B000A01C00F0C9FB204600F08CFC0B23322218
:1058C0001C21304800F074FC044606202070082695
:1058D0006670324631A1A01C00F0B6FB204600F0F5
:1058E00079FC0E2332221C21264800F061FC04467C
:1058F0000520207067703A462BA1A01C00F0A4FB85
:10590000204600F067FC0A270D2332221C211D4887
:1059100000F04EFC04460420207067703A4625A132
:10592000A01C00F091FB204600F054FC0A23322218
:105930001C21144800F03CFC0446067007206070EF
:105940000120A070D221684601800B21C90141804D
:105950007101818006226946E01C00F075FB20463B
:1059600000F038FC012300E008E0322211469002EA
:1059700000F01EFC2978017000F02CFC0020FEBD18
:1059800000207047027000004469616C6F6720530B
:10599000656D69004441313435383000123456FFAA
:1059A000FE9ABCDE00000000765F332E35302E31CB
:1059B0002E353400765F332E302E362E32350000F1
:1059C000704710B51C2102233222880200F0F0FB40
:1059D000FF217431018000F0FDFB10BD10B50446BD
:1059E000042332221C21054800F0E2FB048001213F
:1059F00081700021C17000F0EDFB10BD037000004C
:105A0000024670B54A40D30FDB0740002DD04A0054
:105A10002AD0010E140E000212020919400A520A7D
:105A20008418E50104465443000A120A2E04504328
:105A3000A4194219200CC543AA18120C0125AD0364
:105A4000521C521912047F39240400D0521C1043F6
:105A500001D44000491EC2B20C06C0092018401CE7
:105A60004008802A02D003E0002070BD40084000BA
:105A7000002900DA0020184370BD70B502464A4084
:105A8000D50F40004A00ED0740085208002814D006
:105A9000002A12D0C40DD30D41020120C0055202CC
:105AA000490A520AE41A091812187D34914201D3A6
:105AB000641C00E04900002C01DA002070BD0023C6
:105AC000914201D3891A0343400849000028F7D1C5
:105AD00000290AD0914202D10121C90705E0914273
:105AE00001D2012101E00121C943E005C01840199C
:105AF00000F0B5F970BD420005D04200120E5242CE
:105B00008A4201DB00207047C90508187047000071
:105B1000F0B507460846584087B0C00F04904800CB
:105B20000E46590040084908BC1A884105D238463B
:105B300031461E4617460B460246580040081043A1
:105B40004CD0300D039040055900400D490D059093
:105B5000401A0290402872DA18030121000B09054F
:105B60000843019004980092002805D00199524200
:105B70000020884100920190029840210A1A019960
:105B8000009800F041FC05460C466B4607CB00F040
:105B900053F9C0197141039A0E0D0023D7175640CF
:105BA0001A467A40164344D0049A002A2DD0029A0D
:105BB000012A039A15DC1205C01A91410126360507
:105BC000001C7141D20F059ED207009301920296EC
:105BD0002A46234600F02AFC07B0F0BD384631467D
:105BE000FAE71605224A0F46B218C01AB74101213A
